{
  "contracts/bnbStaker.sol": {
    "BNBStaker": {
      "abi": [
        {
          "inputs": [],
          "stateMutability": "nonpayable",
          "type": "constructor"
        },
        {
          "anonymous": false,
          "inputs": [
            {
              "indexed": true,
              "internalType": "address",
              "name": "user",
              "type": "address"
            },
            {
              "indexed": false,
              "internalType": "uint256",
              "name": "totalAmount",
              "type": "uint256"
            }
          ],
          "name": "FeePayed",
          "type": "event"
        },
        {
          "anonymous": false,
          "inputs": [
            {
              "indexed": true,
              "internalType": "address",
              "name": "user",
              "type": "address"
            },
            {
              "indexed": false,
              "internalType": "uint8",
              "name": "plan",
              "type": "uint8"
            },
            {
              "indexed": false,
              "internalType": "uint256",
              "name": "percent",
              "type": "uint256"
            },
            {
              "indexed": false,
              "internalType": "uint256",
              "name": "amount",
              "type": "uint256"
            },
            {
              "indexed": false,
              "internalType": "uint256",
              "name": "profit",
              "type": "uint256"
            },
            {
              "indexed": false,
              "internalType": "uint256",
              "name": "start",
              "type": "uint256"
            },
            {
              "indexed": false,
              "internalType": "uint256",
              "name": "finish",
              "type": "uint256"
            }
          ],
          "name": "NewDeposit",
          "type": "event"
        },
        {
          "anonymous": false,
          "inputs": [
            {
              "indexed": false,
              "internalType": "address",
              "name": "user",
              "type": "address"
            }
          ],
          "name": "Newbie",
          "type": "event"
        },
        {
          "anonymous": false,
          "inputs": [
            {
              "indexed": true,
              "internalType": "address",
              "name": "previousOwner",
              "type": "address"
            },
            {
              "indexed": true,
              "internalType": "address",
              "name": "newOwner",
              "type": "address"
            }
          ],
          "name": "OwnershipTransferred",
          "type": "event"
        },
        {
          "anonymous": false,
          "inputs": [
            {
              "indexed": true,
              "internalType": "address",
              "name": "referrer",
              "type": "address"
            },
            {
              "indexed": true,
              "internalType": "address",
              "name": "referral",
              "type": "address"
            },
            {
              "indexed": true,
              "internalType": "uint256",
              "name": "level",
              "type": "uint256"
            },
            {
              "indexed": false,
              "internalType": "uint256",
              "name": "amount",
              "type": "uint256"
            }
          ],
          "name": "RefBonus",
          "type": "event"
        },
        {
          "anonymous": false,
          "inputs": [
            {
              "indexed": true,
              "internalType": "address",
              "name": "user",
              "type": "address"
            },
            {
              "indexed": false,
              "internalType": "uint256",
              "name": "amount",
              "type": "uint256"
            }
          ],
          "name": "Withdrawn",
          "type": "event"
        },
        {
          "inputs": [],
          "name": "INVEST_MIN_AMOUNT",
          "outputs": [
            {
              "internalType": "uint256",
              "name": "",
              "type": "uint256"
            }
          ],
          "stateMutability": "view",
          "type": "function"
        },
        {
          "inputs": [],
          "name": "PERCENTS_DIVIDER",
          "outputs": [
            {
              "internalType": "uint256",
              "name": "",
              "type": "uint256"
            }
          ],
          "stateMutability": "view",
          "type": "function"
        },
        {
          "inputs": [],
          "name": "PERCENT_STEP",
          "outputs": [
            {
              "internalType": "uint256",
              "name": "",
              "type": "uint256"
            }
          ],
          "stateMutability": "view",
          "type": "function"
        },
        {
          "inputs": [],
          "name": "PROJECT_FEE",
          "outputs": [
            {
              "internalType": "uint256",
              "name": "",
              "type": "uint256"
            }
          ],
          "stateMutability": "view",
          "type": "function"
        },
        {
          "inputs": [
            {
              "internalType": "uint256",
              "name": "",
              "type": "uint256"
            }
          ],
          "name": "REFERRAL_PERCENTS",
          "outputs": [
            {
              "internalType": "uint256",
              "name": "",
              "type": "uint256"
            }
          ],
          "stateMutability": "view",
          "type": "function"
        },
        {
          "inputs": [],
          "name": "TIME_STEP",
          "outputs": [
            {
              "internalType": "uint256",
              "name": "",
              "type": "uint256"
            }
          ],
          "stateMutability": "view",
          "type": "function"
        },
        {
          "inputs": [],
          "name": "WITHDRAW_FEE",
          "outputs": [
            {
              "internalType": "uint256",
              "name": "",
              "type": "uint256"
            }
          ],
          "stateMutability": "view",
          "type": "function"
        },
        {
          "inputs": [
            {
              "internalType": "uint256",
              "name": "amount",
              "type": "uint256"
            }
          ],
          "name": "claimETH",
          "outputs": [],
          "stateMutability": "nonpayable",
          "type": "function"
        },
        {
          "inputs": [],
          "name": "commissionWallet",
          "outputs": [
            {
              "internalType": "address payable",
              "name": "",
              "type": "address"
            }
          ],
          "stateMutability": "view",
          "type": "function"
        },
        {
          "inputs": [],
          "name": "getContractBalance",
          "outputs": [
            {
              "internalType": "uint256",
              "name": "",
              "type": "uint256"
            }
          ],
          "stateMutability": "view",
          "type": "function"
        },
        {
          "inputs": [
            {
              "internalType": "uint8",
              "name": "plan",
              "type": "uint8"
            }
          ],
          "name": "getPercent",
          "outputs": [
            {
              "internalType": "uint256",
              "name": "",
              "type": "uint256"
            }
          ],
          "stateMutability": "view",
          "type": "function"
        },
        {
          "inputs": [
            {
              "internalType": "uint8",
              "name": "plan",
              "type": "uint8"
            }
          ],
          "name": "getPlanInfo",
          "outputs": [
            {
              "internalType": "uint256",
              "name": "time",
              "type": "uint256"
            },
            {
              "internalType": "uint256",
              "name": "percent",
              "type": "uint256"
            }
          ],
          "stateMutability": "view",
          "type": "function"
        },
        {
          "inputs": [
            {
              "internalType": "uint8",
              "name": "plan",
              "type": "uint8"
            },
            {
              "internalType": "uint256",
              "name": "deposit",
              "type": "uint256"
            }
          ],
          "name": "getResult",
          "outputs": [
            {
              "internalType": "uint256",
              "name": "percent",
              "type": "uint256"
            },
            {
              "internalType": "uint256",
              "name": "profit",
              "type": "uint256"
            },
            {
              "internalType": "uint256",
              "name": "finish",
              "type": "uint256"
            }
          ],
          "stateMutability": "view",
          "type": "function"
        },
        {
          "inputs": [
            {
              "internalType": "address",
              "name": "userAddress",
              "type": "address"
            }
          ],
          "name": "getUserAmountOfDeposits",
          "outputs": [
            {
              "internalType": "uint256",
              "name": "",
              "type": "uint256"
            }
          ],
          "stateMutability": "view",
          "type": "function"
        },
        {
          "inputs": [
            {
              "internalType": "address",
              "name": "userAddress",
              "type": "address"
            }
          ],
          "name": "getUserAvailable",
          "outputs": [
            {
              "internalType": "uint256",
              "name": "",
              "type": "uint256"
            }
          ],
          "stateMutability": "view",
          "type": "function"
        },
        {
          "inputs": [
            {
              "internalType": "address",
              "name": "userAddress",
              "type": "address"
            }
          ],
          "name": "getUserCheckpoint",
          "outputs": [
            {
              "internalType": "uint256",
              "name": "",
              "type": "uint256"
            }
          ],
          "stateMutability": "view",
          "type": "function"
        },
        {
          "inputs": [
            {
              "internalType": "address",
              "name": "userAddress",
              "type": "address"
            },
            {
              "internalType": "uint256",
              "name": "index",
              "type": "uint256"
            }
          ],
          "name": "getUserDepositInfo",
          "outputs": [
            {
              "internalType": "uint8",
              "name": "plan",
              "type": "uint8"
            },
            {
              "internalType": "uint256",
              "name": "percent",
              "type": "uint256"
            },
            {
              "internalType": "uint256",
              "name": "amount",
              "type": "uint256"
            },
            {
              "internalType": "uint256",
              "name": "profit",
              "type": "uint256"
            },
            {
              "internalType": "uint256",
              "name": "start",
              "type": "uint256"
            },
            {
              "internalType": "uint256",
              "name": "finish",
              "type": "uint256"
            }
          ],
          "stateMutability": "view",
          "type": "function"
        },
        {
          "inputs": [
            {
              "internalType": "address",
              "name": "userAddress",
              "type": "address"
            }
          ],
          "name": "getUserDividends",
          "outputs": [
            {
              "internalType": "uint256",
              "name": "",
              "type": "uint256"
            }
          ],
          "stateMutability": "view",
          "type": "function"
        },
        {
          "inputs": [
            {
              "internalType": "address",
              "name": "userAddress",
              "type": "address"
            }
          ],
          "name": "getUserDownlineCount",
          "outputs": [
            {
              "internalType": "uint256",
              "name": "",
              "type": "uint256"
            },
            {
              "internalType": "uint256",
              "name": "",
              "type": "uint256"
            },
            {
              "internalType": "uint256",
              "name": "",
              "type": "uint256"
            }
          ],
          "stateMutability": "view",
          "type": "function"
        },
        {
          "inputs": [
            {
              "internalType": "address",
              "name": "userAddress",
              "type": "address"
            }
          ],
          "name": "getUserReferralBonus",
          "outputs": [
            {
              "internalType": "uint256",
              "name": "",
              "type": "uint256"
            }
          ],
          "stateMutability": "view",
          "type": "function"
        },
        {
          "inputs": [
            {
              "internalType": "address",
              "name": "userAddress",
              "type": "address"
            }
          ],
          "name": "getUserReferralTotalBonus",
          "outputs": [
            {
              "internalType": "uint256",
              "name": "",
              "type": "uint256"
            }
          ],
          "stateMutability": "view",
          "type": "function"
        },
        {
          "inputs": [
            {
              "internalType": "address",
              "name": "userAddress",
              "type": "address"
            }
          ],
          "name": "getUserReferralWithdrawn",
          "outputs": [
            {
              "internalType": "uint256",
              "name": "",
              "type": "uint256"
            }
          ],
          "stateMutability": "view",
          "type": "function"
        },
        {
          "inputs": [
            {
              "internalType": "address",
              "name": "userAddress",
              "type": "address"
            }
          ],
          "name": "getUserReferrer",
          "outputs": [
            {
              "internalType": "address",
              "name": "",
              "type": "address"
            }
          ],
          "stateMutability": "view",
          "type": "function"
        },
        {
          "inputs": [
            {
              "internalType": "address",
              "name": "userAddress",
              "type": "address"
            }
          ],
          "name": "getUserTotalDeposits",
          "outputs": [
            {
              "internalType": "uint256",
              "name": "amount",
              "type": "uint256"
            }
          ],
          "stateMutability": "view",
          "type": "function"
        },
        {
          "inputs": [
            {
              "internalType": "address",
              "name": "referrer",
              "type": "address"
            },
            {
              "internalType": "uint8",
              "name": "plan",
              "type": "uint8"
            }
          ],
          "name": "invest",
          "outputs": [],
          "stateMutability": "payable",
          "type": "function"
        },
        {
          "inputs": [],
          "name": "launch",
          "outputs": [],
          "stateMutability": "nonpayable",
          "type": "function"
        },
        {
          "inputs": [],
          "name": "owner",
          "outputs": [
            {
              "internalType": "address",
              "name": "",
              "type": "address"
            }
          ],
          "stateMutability": "view",
          "type": "function"
        },
        {
          "inputs": [],
          "name": "renounceOwnership",
          "outputs": [],
          "stateMutability": "nonpayable",
          "type": "function"
        },
        {
          "inputs": [],
          "name": "startUNIX",
          "outputs": [
            {
              "internalType": "uint256",
              "name": "",
              "type": "uint256"
            }
          ],
          "stateMutability": "view",
          "type": "function"
        },
        {
          "inputs": [],
          "name": "totalRefBonus",
          "outputs": [
            {
              "internalType": "uint256",
              "name": "",
              "type": "uint256"
            }
          ],
          "stateMutability": "view",
          "type": "function"
        },
        {
          "inputs": [],
          "name": "totalStaked",
          "outputs": [
            {
              "internalType": "uint256",
              "name": "",
              "type": "uint256"
            }
          ],
          "stateMutability": "view",
          "type": "function"
        },
        {
          "inputs": [
            {
              "internalType": "address",
              "name": "newOwner",
              "type": "address"
            }
          ],
          "name": "transferOwnership",
          "outputs": [],
          "stateMutability": "nonpayable",
          "type": "function"
        },
        {
          "inputs": [],
          "name": "withdraw",
          "outputs": [],
          "stateMutability": "nonpayable",
          "type": "function"
        }
      ],
      "devdoc": {
        "kind": "dev",
        "methods": {},
        "version": 1
      },
      "evm": {
        "bytecode": {
          "linkReferences": {},
          "object": "60e0604052603c6080908152601e60a052600a60c05262000025906001906003620002c5565b503480156200003357600080fd5b50600080546001600160a01b031916339081178255604051909182917f8be0079c531659141344cd1fd0a4f28419497f9722a3daafe3b4186f6b6457e0908290a3506000546001600160a01b0316600760006101000a8154816001600160a01b0302191690836001600160a01b03160217905550600060068190555060046040518060400160405280600e815260200160508152509080600181540180825580915050600190039060005260206000209060020201600090919091909150600082015181600001556020820151816001015550506004604051806040016040528060158152602001604b81525090806001815401808255809150506001900390600052602060002090600202016000909190919091506000820151816000015560208201518160010155505060046040518060400160405280601c8152602001604681525090806001815401808255809150506001900390600052602060002090600202016000909190919091506000820151816000015560208201518160010155505060046040518060400160405280600e815260200160508152509080600181540180825580915050600190039060005260206000209060020201600090919091909150600082015181600001556020820151816001015550506004604051806040016040528060158152602001604b81525090806001815401808255809150506001900390600052602060002090600202016000909190919091506000820151816000015560208201518160010155505060046040518060400160405280601c8152602001604681525090806001815401808255809150506001900390600052602060002090600202016000909190919091506000820151816000015560208201518160010155505062000331565b82805482825590600052602060002090810192821562000308579160200282015b8281111562000308578251829060ff16905591602001919060010190620002e6565b50620003169291506200031a565b5090565b5b808211156200031657600081556001016200031b565b611b9480620003416000396000f3fe6080604052600436106101ee5760003560e01c80636f9fb98a1161010d578063a8aeb6c2116100a0578063d7ffca911161006f578063d7ffca91146105d3578063e262113e1461060c578063e85abe0914610628578063f2fde38b14610661578063fe96973a1461068157600080fd5b8063a8aeb6c214610501578063aecaa63414610537578063c0806b031461056c578063c2341238146105bd57600080fd5b80638da5cb5b116100dc5780638da5cb5b146104a357806397c0262a146104c15780639bff5ddb1461020a578063a51b9533146104e157600080fd5b80636f9fb98a14610445578063715018a6146104585780637e3abeea1461046d578063817b1cd21461048d57600080fd5b806348c37203116101855780635936cf61116101545780635936cf61146103cf578063600d20ce146103ef57806369b11dd51461040f5780636bb185561461042557600080fd5b806348c372031461035957806348d44bd11461039257806357fc86b4146103a7578063581c5ae6146103bc57600080fd5b8063153ab9df116101c1578063153ab9df146102b957806332bc298c146102d957806336144c9a146102f05780633ccfd60b1461034457600080fd5b806301339c21146101f357806301c234a81461020a57806303a93c0c14610233578063040a772e14610299575b600080fd5b3480156101ff57600080fd5b506102086106a1565b005b34801561021657600080fd5b506102206103e881565b6040519081526020015b60405180910390f35b34801561023f57600080fd5b5061027e61024e3660046119c8565b6001600160a01b031660009081526005602081905260409091206003810154600482015491909201549192909190565b6040805193845260208401929092529082015260600161022a565b3480156102a557600080fd5b506102206102b43660046119c8565b6106be565b3480156102c557600080fd5b506102206102d43660046119c8565b6109c2565b3480156102e557600080fd5b506102206201518081565b3480156102fc57600080fd5b5061032c61030b3660046119c8565b6001600160a01b039081166000908152600560205260409020600201541690565b6040516001600160a01b03909116815260200161022a565b34801561035057600080fd5b506102086109f8565b34801561036557600080fd5b506102206103743660046119c8565b6001600160a01b031660009081526005602052604090206007015490565b34801561039e57600080fd5b50610220609681565b3480156103b357600080fd5b50610220600381565b6102086103ca366004611a0b565b610b2d565b3480156103db57600080fd5b5061027e6103ea366004611a6f565b6110e9565b3480156103fb57600080fd5b5061022061040a366004611a3d565b61122f565b34801561041b57600080fd5b5061022060035481565b34801561043157600080fd5b506102206104403660046119c8565b611250565b34801561045157600080fd5b5047610220565b34801561046457600080fd5b5061020861127c565b34801561047957600080fd5b506102206104883660046119c8565b6112f0565b34801561049957600080fd5b5061022060025481565b3480156104af57600080fd5b506000546001600160a01b031661032c565b3480156104cd57600080fd5b5060075461032c906001600160a01b031681565b3480156104ed57600080fd5b506102206104fc366004611a55565b61138c565b34801561050d57600080fd5b5061022061051c3660046119c8565b6001600160a01b031660009081526005602052604090205490565b34801561054357600080fd5b50610557610552366004611a55565b611448565b6040805192835260208301919091520161022a565b34801561057857600080fd5b5061058c6105873660046119e2565b6114c0565b6040805160ff90971687526020870195909552938501929092526060840152608083015260a082015260c00161022a565b3480156105c957600080fd5b5061022060065481565b3480156105df57600080fd5b506102206105ee3660046119c8565b6001600160a01b031660009081526005602052604090206001015490565b34801561061857600080fd5b5061022067016345785d8a000081565b34801561063457600080fd5b506102206106433660046119c8565b6001600160a01b031660009081526005602052604090206006015490565b34801561066d57600080fd5b5061020861067c3660046119c8565b61163a565b34801561068d57600080fd5b5061020861069c366004611a3d565b611670565b6007546001600160a01b031633146106b857600080fd5b42600655565b6001600160a01b038116600090815260056020526040812081805b82548110156109ba5782600001818154811061070557634e487b7160e01b600052603260045260246000fd5b906000526020600020906006020160050154836001015410156109a857600383600001828154811061074757634e487b7160e01b600052603260045260246000fd5b600091825260209091206006909102015460ff1610156109225760006107ea6103e86107e486600001858154811061078f57634e487b7160e01b600052603260045260246000fd5b9060005260206000209060060201600101548760000186815481106107c457634e487b7160e01b600052603260045260246000fd5b90600052602060002090600602016002015461173890919063ffffffff16565b906117be565b90506000846001015485600001848154811061081657634e487b7160e01b600052603260045260246000fd5b9060005260206000209060060201600401541161083757846001015461086d565b84600001838154811061085a57634e487b7160e01b600052603260045260246000fd5b9060005260206000209060060201600401545b905060004286600001858154811061089557634e487b7160e01b600052603260045260246000fd5b906000526020600020906006020160050154106108b257426108e8565b8560000184815481106108d557634e487b7160e01b600052603260045260246000fd5b9060005260206000209060060201600501545b90508082101561091a57610917610910620151806107e46109098587611823565b8790611738565b8690611881565b94505b5050506109a8565b82600001818154811061094557634e487b7160e01b600052603260045260246000fd5b9060005260206000209060060201600501544211156109a8576109a583600001828154811061098457634e487b7160e01b600052603260045260246000fd5b9060005260206000209060060201600301548361188190919063ffffffff16565b91505b806109b281611b2d565b9150506106d9565b509392505050565b60006109f26109d0836106be565b6001600160a01b03841660009081526005602052604090206006015490611881565b92915050565b33600081815260056020526040812091610a11906106be565b90506000610a276127106107e4846103e8611738565b9050610a338282611823565b336000908152600560205260409020600601549092508015610a635760006006850155610a608382611881565b92505b60008311610ab05760405162461bcd60e51b81526020600482015260156024820152745573657220686173206e6f206469766964656e647360581b60448201526064015b60405180910390fd5b4783811015610abd578093505b426001860155604051339085156108fc029086906000818181858888f19350505050158015610af0573d6000803e3d6000fd5b5060405184815233907f7084f5476618d8e60b11ef0d7d3f06914655adb8793e28ff7f018d4c76d505d59060200160405180910390a25050505050565b67016345785d8a0000341015610b715760405162461bcd60e51b81526020600482015260096024820152681d1bdbc81cdb585b1b60ba1b6044820152606401610aa7565b60068160ff1610610bb35760405162461bcd60e51b815260206004820152600c60248201526b24b73b30b634b210383630b760a11b6044820152606401610aa7565b4260065410610c045760405162461bcd60e51b815260206004820152601b60248201527f636f6e7472616374206861736e607420737461727465642079657400000000006044820152606401610aa7565b6000610c176103e86107e4346096611738565b6007546040519192506001600160a01b03169082156108fc029083906000818181858888f19350505050158015610c52573d6000803e3d6000fd5b5060405181815233907f2899dc8c12def1caa9accb64257cf2fd9f960f21bb27a560a757eae3c2ec43c19060200160405180910390a233600090815260056020526040902060028101546001600160a01b0316610df7576001600160a01b03841660009081526005602052604090205415801590610cd957506001600160a01b0384163314155b15610cfc576002810180546001600160a01b0319166001600160a01b0386161790555b60028101546001600160a01b031660005b6003811015610df4576001600160a01b03821615610ddd57610d79600160056000856001600160a01b03166001600160a01b031681526020019081526020016000206003018360038110610d7157634e487b7160e01b600052603260045260246000fd5b015490611881565b6001600160a01b038316600090815260056020526040902060039081019083908110610db557634e487b7160e01b600052603260045260246000fd5b01556001600160a01b0391821660009081526005602052604090206002015490911690610de2565b610df4565b80610dec81611b2d565b915050610d0d565b50505b60028101546001600160a01b031615610f685760028101546001600160a01b031660005b6003811015610f65576001600160a01b03821615610f4e576000610e796103e86107e460018581548110610e5f57634e487b7160e01b600052603260045260246000fd5b90600052602060002001543461173890919063ffffffff16565b6001600160a01b038416600090815260056020526040902060060154909150610ea29082611881565b6001600160a01b0384166000908152600560205260409020600681019190915560070154610ed09082611881565b6001600160a01b038416600081815260056020908152604091829020600701939093555183815284923392917fd41f7e766eebcc7ff42b11ac8691bdf864db4afc0c55e71d629d54edce460d98910160405180910390a4506001600160a01b0391821660009081526005602052604090206002015490911690610f53565b610f65565b80610f5d81611b2d565b915050610e1b565b50505b8054610fa8574260018201556040513381527f9fd565cd14c3c391679eb0cad12a14dcf7534e9d3462bcb9b67a098a9bbbc24a9060200160405180910390a15b6000806000610fb786346110e9565b925092509250836000016040518060c001604052808860ff16815260200185815260200134815260200184815260200142815260200183815250908060018154018082558091505060019003906000526020600020906006020160009091909190915060008201518160000160006101000a81548160ff021916908360ff1602179055506020820151816001015560408201518160020155606082015181600301556080820151816004015560a0820151816005015550506110843460025461188190919063ffffffff16565b6002556040805160ff881681526020810185905234818301526060810184905242608082015260a08101839052905133917f84e02daa69bdb087c9fe8d3041abca495512cb14e723070f6d1d4efface82e5d919081900360c00190a250505050505050565b60008060006110f78561138c565b925060038560ff16101561115a5761115360048660ff168154811061112c57634e487b7160e01b600052603260045260246000fd5b600091825260209091206002909102015461114d6103e86107e48888611738565b90611738565b91506111da565b60068560ff1610156111da5760005b60048660ff168154811061118d57634e487b7160e01b600052603260045260246000fd5b9060005260206000209060020201600001548110156111d8576111c46111bd6103e86107e48761114d8a89611881565b8490611881565b9250806111d081611b2d565b915050611169565b505b61122661121f6201518060048860ff168154811061120857634e487b7160e01b600052603260045260246000fd5b600091825260209091206002909102015490611738565b4290611881565b90509250925092565b6001818154811061123f57600080fd5b600091825260209091200154905081565b6001600160a01b038116600090815260056020526040812060068101546007909101546109f291611823565b6000546001600160a01b031633146112a65760405162461bcd60e51b8152600401610aa790611a8a565b600080546040516001600160a01b03909116907f8be0079c531659141344cd1fd0a4f28419497f9722a3daafe3b4186f6b6457e0908390a3600080546001600160a01b0319169055565b6000805b6001600160a01b038316600090815260056020526040902054811015611386576001600160a01b0383166000908152600560205260409020805461137291908390811061135157634e487b7160e01b600052603260045260246000fd5b9060005260206000209060060201600201548361188190919063ffffffff16565b91508061137e81611b2d565b9150506112f4565b50919050565b6000600654421115611406576109f26113c2620151806107e46113ba6006544261182390919063ffffffff16565b600390611738565b60048460ff16815481106113e657634e487b7160e01b600052603260045260246000fd5b90600052602060002090600202016001015461188190919063ffffffff16565b60048260ff168154811061142a57634e487b7160e01b600052603260045260246000fd5b9060005260206000209060020201600101549050919050565b919050565b60008060048360ff168154811061146f57634e487b7160e01b600052603260045260246000fd5b906000526020600020906002020160000154915060048360ff16815481106114a757634e487b7160e01b600052603260045260246000fd5b9060005260206000209060020201600101549050915091565b6001600160a01b03821660009081526005602052604081208054829182918291829182919081908990811061150557634e487b7160e01b600052603260045260246000fd5b6000918252602090912060069091020154815460ff909116975081908990811061153f57634e487b7160e01b600052603260045260246000fd5b906000526020600020906006020160010154955080600001888154811061157657634e487b7160e01b600052603260045260246000fd5b90600052602060002090600602016002015494508060000188815481106115ad57634e487b7160e01b600052603260045260246000fd5b90600052602060002090600602016003015493508060000188815481106115e457634e487b7160e01b600052603260045260246000fd5b906000526020600020906006020160040154925080600001888154811061161b57634e487b7160e01b600052603260045260246000fd5b9060005260206000209060060201600501549150509295509295509295565b6000546001600160a01b031633146116645760405162461bcd60e51b8152600401610aa790611a8a565b61166d816118e0565b50565b6000546001600160a01b0316331461169a5760405162461bcd60e51b8152600401610aa790611a8a565b600080546040516001600160a01b039091169083908381818185875af1925050503d80600081146116e7576040519150601f19603f3d011682016040523d82523d6000602084013e6116ec565b606091505b50509050806117345760405162461bcd60e51b81526020600482015260146024820152732330b4b632b2103a379039b2b7321022ba3432b960611b6044820152606401610aa7565b5050565b600082611747575060006109f2565b60006117538385611af7565b9050826117608583611ad7565b146117b75760405162461bcd60e51b815260206004820152602160248201527f536166654d6174683a206d756c7469706c69636174696f6e206f766572666c6f6044820152607760f81b6064820152608401610aa7565b9392505050565b600080821161180f5760405162461bcd60e51b815260206004820152601a60248201527f536166654d6174683a206469766973696f6e206279207a65726f0000000000006044820152606401610aa7565b600061181b8385611ad7565b949350505050565b6000828211156118755760405162461bcd60e51b815260206004820152601e60248201527f536166654d6174683a207375627472616374696f6e206f766572666c6f7700006044820152606401610aa7565b600061181b8385611b16565b60008061188e8385611abf565b9050838110156117b75760405162461bcd60e51b815260206004820152601b60248201527f536166654d6174683a206164646974696f6e206f766572666c6f7700000000006044820152606401610aa7565b6001600160a01b0381166119455760405162461bcd60e51b815260206004820152602660248201527f4f776e61626c653a206e6577206f776e657220697320746865207a65726f206160448201526564647265737360d01b6064820152608401610aa7565b600080546040516001600160a01b03808516939216917f8be0079c531659141344cd1fd0a4f28419497f9722a3daafe3b4186f6b6457e091a3600080546001600160a01b0319166001600160a01b0392909216919091179055565b80356001600160a01b038116811461144357600080fd5b803560ff8116811461144357600080fd5b6000602082840312156119d9578081fd5b6117b7826119a0565b600080604083850312156119f4578081fd5b6119fd836119a0565b946020939093013593505050565b60008060408385031215611a1d578182fd5b611a26836119a0565b9150611a34602084016119b7565b90509250929050565b600060208284031215611a4e578081fd5b5035919050565b600060208284031215611a66578081fd5b6117b7826119b7565b60008060408385031215611a81578182fd5b6119fd836119b7565b6020808252818101527f4f776e61626c653a2063616c6c6572206973206e6f7420746865206f776e6572604082015260600190565b60008219821115611ad257611ad2611b48565b500190565b600082611af257634e487b7160e01b81526012600452602481fd5b500490565b6000816000190483118215151615611b1157611b11611b48565b500290565b600082821015611b2857611b28611b48565b500390565b6000600019821415611b4157611b41611b48565b5060010190565b634e487b7160e01b600052601160045260246000fdfea26469706673582212201b8a9ce2d71419e2553202db58d7ea3f99bd42473a488bdece35414c2561d95b64736f6c63430008040033",
          "opcodes": "PUSH1 0xE0 PUSH1 0x40 MSTORE PUSH1 0x3C PUSH1 0x80 SWAP1 DUP2 MSTORE PUSH1 0x1E PUSH1 0xA0 MSTORE PUSH1 0xA PUSH1 0xC0 MSTORE PUSH3 0x25 SWAP1 PUSH1 0x1 SWAP1 PUSH1 0x3 PUSH3 0x2C5 JUMP JUMPDEST POP CALLVALUE DUP1 ISZERO PUSH3 0x33 JUMPI PUSH1 0x0 DUP1 REVERT JUMPDEST POP PUSH1 0x0 DUP1 SLOAD PUSH1 0x1 PUSH1 0x1 PUSH1 0xA0 SHL SUB NOT AND CALLER SWAP1 DUP2 OR DUP3 SSTORE PUSH1 0x40 MLOAD SWAP1 SWAP2 DUP3 SWAP2 PUSH32 0x8BE0079C531659141344CD1FD0A4F28419497F9722A3DAAFE3B4186F6B6457E0 SWAP1 DUP3 SWAP1 LOG3 POP PUSH1 0x0 SLOAD PUSH1 0x1 PUSH1 0x1 PUSH1 0xA0 SHL SUB AND PUSH1 0x7 PUSH1 0x0 PUSH2 0x100 EXP DUP2 SLOAD DUP2 PUSH1 0x1 PUSH1 0x1 PUSH1 0xA0 SHL SUB MUL NOT AND SWAP1 DUP4 PUSH1 0x1 PUSH1 0x1 PUSH1 0xA0 SHL SUB AND MUL OR SWAP1 SSTORE POP PUSH1 0x0 PUSH1 0x6 DUP2 SWAP1 SSTORE POP PUSH1 0x4 PUSH1 0x40 MLOAD DUP1 PUSH1 0x40 ADD PUSH1 0x40 MSTORE DUP1 PUSH1 0xE DUP2 MSTORE PUSH1 0x20 ADD PUSH1 0x50 DUP2 MSTORE POP SWAP1 DUP1 PUSH1 0x1 DUP2 SLOAD ADD DUP1 DUP3 SSTORE DUP1 SWAP2 POP POP PUSH1 0x1 SWAP1 SUB SWAP1 PUSH1 0x0 MSTORE PUSH1 0x20 PUSH1 0x0 KECCAK256 SWAP1 PUSH1 0x2 MUL ADD PUSH1 0x0 SWAP1 SWAP2 SWAP1 SWAP2 SWAP1 SWAP2 POP PUSH1 0x0 DUP3 ADD MLOAD DUP2 PUSH1 0x0 ADD SSTORE PUSH1 0x20 DUP3 ADD MLOAD DUP2 PUSH1 0x1 ADD SSTORE POP POP PUSH1 0x4 PUSH1 0x40 MLOAD DUP1 PUSH1 0x40 ADD PUSH1 0x40 MSTORE DUP1 PUSH1 0x15 DUP2 MSTORE PUSH1 0x20 ADD PUSH1 0x4B DUP2 MSTORE POP SWAP1 DUP1 PUSH1 0x1 DUP2 SLOAD ADD DUP1 DUP3 SSTORE DUP1 SWAP2 POP POP PUSH1 0x1 SWAP1 SUB SWAP1 PUSH1 0x0 MSTORE PUSH1 0x20 PUSH1 0x0 KECCAK256 SWAP1 PUSH1 0x2 MUL ADD PUSH1 0x0 SWAP1 SWAP2 SWAP1 SWAP2 SWAP1 SWAP2 POP PUSH1 0x0 DUP3 ADD MLOAD DUP2 PUSH1 0x0 ADD SSTORE PUSH1 0x20 DUP3 ADD MLOAD DUP2 PUSH1 0x1 ADD SSTORE POP POP PUSH1 0x4 PUSH1 0x40 MLOAD DUP1 PUSH1 0x40 ADD PUSH1 0x40 MSTORE DUP1 PUSH1 0x1C DUP2 MSTORE PUSH1 0x20 ADD PUSH1 0x46 DUP2 MSTORE POP SWAP1 DUP1 PUSH1 0x1 DUP2 SLOAD ADD DUP1 DUP3 SSTORE DUP1 SWAP2 POP POP PUSH1 0x1 SWAP1 SUB SWAP1 PUSH1 0x0 MSTORE PUSH1 0x20 PUSH1 0x0 KECCAK256 SWAP1 PUSH1 0x2 MUL ADD PUSH1 0x0 SWAP1 SWAP2 SWAP1 SWAP2 SWAP1 SWAP2 POP PUSH1 0x0 DUP3 ADD MLOAD DUP2 PUSH1 0x0 ADD SSTORE PUSH1 0x20 DUP3 ADD MLOAD DUP2 PUSH1 0x1 ADD SSTORE POP POP PUSH1 0x4 PUSH1 0x40 MLOAD DUP1 PUSH1 0x40 ADD PUSH1 0x40 MSTORE DUP1 PUSH1 0xE DUP2 MSTORE PUSH1 0x20 ADD PUSH1 0x50 DUP2 MSTORE POP SWAP1 DUP1 PUSH1 0x1 DUP2 SLOAD ADD DUP1 DUP3 SSTORE DUP1 SWAP2 POP POP PUSH1 0x1 SWAP1 SUB SWAP1 PUSH1 0x0 MSTORE PUSH1 0x20 PUSH1 0x0 KECCAK256 SWAP1 PUSH1 0x2 MUL ADD PUSH1 0x0 SWAP1 SWAP2 SWAP1 SWAP2 SWAP1 SWAP2 POP PUSH1 0x0 DUP3 ADD MLOAD DUP2 PUSH1 0x0 ADD SSTORE PUSH1 0x20 DUP3 ADD MLOAD DUP2 PUSH1 0x1 ADD SSTORE POP POP PUSH1 0x4 PUSH1 0x40 MLOAD DUP1 PUSH1 0x40 ADD PUSH1 0x40 MSTORE DUP1 PUSH1 0x15 DUP2 MSTORE PUSH1 0x20 ADD PUSH1 0x4B DUP2 MSTORE POP SWAP1 DUP1 PUSH1 0x1 DUP2 SLOAD ADD DUP1 DUP3 SSTORE DUP1 SWAP2 POP POP PUSH1 0x1 SWAP1 SUB SWAP1 PUSH1 0x0 MSTORE PUSH1 0x20 PUSH1 0x0 KECCAK256 SWAP1 PUSH1 0x2 MUL ADD PUSH1 0x0 SWAP1 SWAP2 SWAP1 SWAP2 SWAP1 SWAP2 POP PUSH1 0x0 DUP3 ADD MLOAD DUP2 PUSH1 0x0 ADD SSTORE PUSH1 0x20 DUP3 ADD MLOAD DUP2 PUSH1 0x1 ADD SSTORE POP POP PUSH1 0x4 PUSH1 0x40 MLOAD DUP1 PUSH1 0x40 ADD PUSH1 0x40 MSTORE DUP1 PUSH1 0x1C DUP2 MSTORE PUSH1 0x20 ADD PUSH1 0x46 DUP2 MSTORE POP SWAP1 DUP1 PUSH1 0x1 DUP2 SLOAD ADD DUP1 DUP3 SSTORE DUP1 SWAP2 POP POP PUSH1 0x1 SWAP1 SUB SWAP1 PUSH1 0x0 MSTORE PUSH1 0x20 PUSH1 0x0 KECCAK256 SWAP1 PUSH1 0x2 MUL ADD PUSH1 0x0 SWAP1 SWAP2 SWAP1 SWAP2 SWAP1 SWAP2 POP PUSH1 0x0 DUP3 ADD MLOAD DUP2 PUSH1 0x0 ADD SSTORE PUSH1 0x20 DUP3 ADD MLOAD DUP2 PUSH1 0x1 ADD SSTORE POP POP PUSH3 0x331 JUMP JUMPDEST DUP3 DUP1 SLOAD DUP3 DUP3 SSTORE SWAP1 PUSH1 0x0 MSTORE PUSH1 0x20 PUSH1 0x0 KECCAK256 SWAP1 DUP2 ADD SWAP3 DUP3 ISZERO PUSH3 0x308 JUMPI SWAP2 PUSH1 0x20 MUL DUP3 ADD JUMPDEST DUP3 DUP2 GT ISZERO PUSH3 0x308 JUMPI DUP3 MLOAD DUP3 SWAP1 PUSH1 0xFF AND SWAP1 SSTORE SWAP2 PUSH1 0x20 ADD SWAP2 SWAP1 PUSH1 0x1 ADD SWAP1 PUSH3 0x2E6 JUMP JUMPDEST POP PUSH3 0x316 SWAP3 SWAP2 POP PUSH3 0x31A JUMP JUMPDEST POP SWAP1 JUMP JUMPDEST JUMPDEST DUP1 DUP3 GT ISZERO PUSH3 0x316 JUMPI PUSH1 0x0 DUP2 SSTORE PUSH1 0x1 ADD PUSH3 0x31B JUMP JUMPDEST PUSH2 0x1B94 DUP1 PUSH3 0x341 PUSH1 0x0 CODECOPY PUSH1 0x0 RETURN INVALID PUSH1 0x80 PUSH1 0x40 MSTORE PUSH1 0x4 CALLDATASIZE LT PUSH2 0x1EE JUMPI PUSH1 0x0 CALLDATALOAD PUSH1 0xE0 SHR DUP1 PUSH4 0x6F9FB98A GT PUSH2 0x10D JUMPI DUP1 PUSH4 0xA8AEB6C2 GT PUSH2 0xA0 JUMPI DUP1 PUSH4 0xD7FFCA91 GT PUSH2 0x6F JUMPI DUP1 PUSH4 0xD7FFCA91 EQ PUSH2 0x5D3 JUMPI DUP1 PUSH4 0xE262113E EQ PUSH2 0x60C JUMPI DUP1 PUSH4 0xE85ABE09 EQ PUSH2 0x628 JUMPI DUP1 PUSH4 0xF2FDE38B EQ PUSH2 0x661 JUMPI DUP1 PUSH4 0xFE96973A EQ PUSH2 0x681 JUMPI PUSH1 0x0 DUP1 REVERT JUMPDEST DUP1 PUSH4 0xA8AEB6C2 EQ PUSH2 0x501 JUMPI DUP1 PUSH4 0xAECAA634 EQ PUSH2 0x537 JUMPI DUP1 PUSH4 0xC0806B03 EQ PUSH2 0x56C JUMPI DUP1 PUSH4 0xC2341238 EQ PUSH2 0x5BD JUMPI PUSH1 0x0 DUP1 REVERT JUMPDEST DUP1 PUSH4 0x8DA5CB5B GT PUSH2 0xDC JUMPI DUP1 PUSH4 0x8DA5CB5B EQ PUSH2 0x4A3 JUMPI DUP1 PUSH4 0x97C0262A EQ PUSH2 0x4C1 JUMPI DUP1 PUSH4 0x9BFF5DDB EQ PUSH2 0x20A JUMPI DUP1 PUSH4 0xA51B9533 EQ PUSH2 0x4E1 JUMPI PUSH1 0x0 DUP1 REVERT JUMPDEST DUP1 PUSH4 0x6F9FB98A EQ PUSH2 0x445 JUMPI DUP1 PUSH4 0x715018A6 EQ PUSH2 0x458 JUMPI DUP1 PUSH4 0x7E3ABEEA EQ PUSH2 0x46D JUMPI DUP1 PUSH4 0x817B1CD2 EQ PUSH2 0x48D JUMPI PUSH1 0x0 DUP1 REVERT JUMPDEST DUP1 PUSH4 0x48C37203 GT PUSH2 0x185 JUMPI DUP1 PUSH4 0x5936CF61 GT PUSH2 0x154 JUMPI DUP1 PUSH4 0x5936CF61 EQ PUSH2 0x3CF JUMPI DUP1 PUSH4 0x600D20CE EQ PUSH2 0x3EF JUMPI DUP1 PUSH4 0x69B11DD5 EQ PUSH2 0x40F JUMPI DUP1 PUSH4 0x6BB18556 EQ PUSH2 0x425 JUMPI PUSH1 0x0 DUP1 REVERT JUMPDEST DUP1 PUSH4 0x48C37203 EQ PUSH2 0x359 JUMPI DUP1 PUSH4 0x48D44BD1 EQ PUSH2 0x392 JUMPI DUP1 PUSH4 0x57FC86B4 EQ PUSH2 0x3A7 JUMPI DUP1 PUSH4 0x581C5AE6 EQ PUSH2 0x3BC JUMPI PUSH1 0x0 DUP1 REVERT JUMPDEST DUP1 PUSH4 0x153AB9DF GT PUSH2 0x1C1 JUMPI DUP1 PUSH4 0x153AB9DF EQ PUSH2 0x2B9 JUMPI DUP1 PUSH4 0x32BC298C EQ PUSH2 0x2D9 JUMPI DUP1 PUSH4 0x36144C9A EQ PUSH2 0x2F0 JUMPI DUP1 PUSH4 0x3CCFD60B EQ PUSH2 0x344 JUMPI PUSH1 0x0 DUP1 REVERT JUMPDEST DUP1 PUSH4 0x1339C21 EQ PUSH2 0x1F3 JUMPI DUP1 PUSH4 0x1C234A8 EQ PUSH2 0x20A JUMPI DUP1 PUSH4 0x3A93C0C EQ PUSH2 0x233 JUMPI DUP1 PUSH4 0x40A772E EQ PUSH2 0x299 JUMPI JUMPDEST PUSH1 0x0 DUP1 REVERT JUMPDEST CALLVALUE DUP1 ISZERO PUSH2 0x1FF JUMPI PUSH1 0x0 DUP1 REVERT JUMPDEST POP PUSH2 0x208 PUSH2 0x6A1 JUMP JUMPDEST STOP JUMPDEST CALLVALUE DUP1 ISZERO PUSH2 0x216 JUMPI PUSH1 0x0 DUP1 REVERT JUMPDEST POP PUSH2 0x220 PUSH2 0x3E8 DUP2 JUMP JUMPDEST PUSH1 0x40 MLOAD SWAP1 DUP2 MSTORE PUSH1 0x20 ADD JUMPDEST PUSH1 0x40 MLOAD DUP1 SWAP2 SUB SWAP1 RETURN JUMPDEST CALLVALUE DUP1 ISZERO PUSH2 0x23F JUMPI PUSH1 0x0 DUP1 REVERT JUMPDEST POP PUSH2 0x27E PUSH2 0x24E CALLDATASIZE PUSH1 0x4 PUSH2 0x19C8 JUMP JUMPDEST PUSH1 0x1 PUSH1 0x1 PUSH1 0xA0 SHL SUB AND PUSH1 0x0 SWAP1 DUP2 MSTORE PUSH1 0x5 PUSH1 0x20 DUP2 SWAP1 MSTORE PUSH1 0x40 SWAP1 SWAP2 KECCAK256 PUSH1 0x3 DUP2 ADD SLOAD PUSH1 0x4 DUP3 ADD SLOAD SWAP2 SWAP1 SWAP3 ADD SLOAD SWAP2 SWAP3 SWAP1 SWAP2 SWAP1 JUMP JUMPDEST PUSH1 0x40 DUP1 MLOAD SWAP4 DUP5 MSTORE PUSH1 0x20 DUP5 ADD SWAP3 SWAP1 SWAP3 MSTORE SWAP1 DUP3 ADD MSTORE PUSH1 0x60 ADD PUSH2 0x22A JUMP JUMPDEST CALLVALUE DUP1 ISZERO PUSH2 0x2A5 JUMPI PUSH1 0x0 DUP1 REVERT JUMPDEST POP PUSH2 0x220 PUSH2 0x2B4 CALLDATASIZE PUSH1 0x4 PUSH2 0x19C8 JUMP JUMPDEST PUSH2 0x6BE JUMP JUMPDEST CALLVALUE DUP1 ISZERO PUSH2 0x2C5 JUMPI PUSH1 0x0 DUP1 REVERT JUMPDEST POP PUSH2 0x220 PUSH2 0x2D4 CALLDATASIZE PUSH1 0x4 PUSH2 0x19C8 JUMP JUMPDEST PUSH2 0x9C2 JUMP JUMPDEST CALLVALUE DUP1 ISZERO PUSH2 0x2E5 JUMPI PUSH1 0x0 DUP1 REVERT JUMPDEST POP PUSH2 0x220 PUSH3 0x15180 DUP2 JUMP JUMPDEST CALLVALUE DUP1 ISZERO PUSH2 0x2FC JUMPI PUSH1 0x0 DUP1 REVERT JUMPDEST POP PUSH2 0x32C PUSH2 0x30B CALLDATASIZE PUSH1 0x4 PUSH2 0x19C8 JUMP JUMPDEST PUSH1 0x1 PUSH1 0x1 PUSH1 0xA0 SHL SUB SWAP1 DUP2 AND PUSH1 0x0 SWAP1 DUP2 MSTORE PUSH1 0x5 PUSH1 0x20 MSTORE PUSH1 0x40 SWAP1 KECCAK256 PUSH1 0x2 ADD SLOAD AND SWAP1 JUMP JUMPDEST PUSH1 0x40 MLOAD PUSH1 0x1 PUSH1 0x1 PUSH1 0xA0 SHL SUB SWAP1 SWAP2 AND DUP2 MSTORE PUSH1 0x20 ADD PUSH2 0x22A JUMP JUMPDEST CALLVALUE DUP1 ISZERO PUSH2 0x350 JUMPI PUSH1 0x0 DUP1 REVERT JUMPDEST POP PUSH2 0x208 PUSH2 0x9F8 JUMP JUMPDEST CALLVALUE DUP1 ISZERO PUSH2 0x365 JUMPI PUSH1 0x0 DUP1 REVERT JUMPDEST POP PUSH2 0x220 PUSH2 0x374 CALLDATASIZE PUSH1 0x4 PUSH2 0x19C8 JUMP JUMPDEST PUSH1 0x1 PUSH1 0x1 PUSH1 0xA0 SHL SUB AND PUSH1 0x0 SWAP1 DUP2 MSTORE PUSH1 0x5 PUSH1 0x20 MSTORE PUSH1 0x40 SWAP1 KECCAK256 PUSH1 0x7 ADD SLOAD SWAP1 JUMP JUMPDEST CALLVALUE DUP1 ISZERO PUSH2 0x39E JUMPI PUSH1 0x0 DUP1 REVERT JUMPDEST POP PUSH2 0x220 PUSH1 0x96 DUP2 JUMP JUMPDEST CALLVALUE DUP1 ISZERO PUSH2 0x3B3 JUMPI PUSH1 0x0 DUP1 REVERT JUMPDEST POP PUSH2 0x220 PUSH1 0x3 DUP2 JUMP JUMPDEST PUSH2 0x208 PUSH2 0x3CA CALLDATASIZE PUSH1 0x4 PUSH2 0x1A0B JUMP JUMPDEST PUSH2 0xB2D JUMP JUMPDEST CALLVALUE DUP1 ISZERO PUSH2 0x3DB JUMPI PUSH1 0x0 DUP1 REVERT JUMPDEST POP PUSH2 0x27E PUSH2 0x3EA CALLDATASIZE PUSH1 0x4 PUSH2 0x1A6F JUMP JUMPDEST PUSH2 0x10E9 JUMP JUMPDEST CALLVALUE DUP1 ISZERO PUSH2 0x3FB JUMPI PUSH1 0x0 DUP1 REVERT JUMPDEST POP PUSH2 0x220 PUSH2 0x40A CALLDATASIZE PUSH1 0x4 PUSH2 0x1A3D JUMP JUMPDEST PUSH2 0x122F JUMP JUMPDEST CALLVALUE DUP1 ISZERO PUSH2 0x41B JUMPI PUSH1 0x0 DUP1 REVERT JUMPDEST POP PUSH2 0x220 PUSH1 0x3 SLOAD DUP2 JUMP JUMPDEST CALLVALUE DUP1 ISZERO PUSH2 0x431 JUMPI PUSH1 0x0 DUP1 REVERT JUMPDEST POP PUSH2 0x220 PUSH2 0x440 CALLDATASIZE PUSH1 0x4 PUSH2 0x19C8 JUMP JUMPDEST PUSH2 0x1250 JUMP JUMPDEST CALLVALUE DUP1 ISZERO PUSH2 0x451 JUMPI PUSH1 0x0 DUP1 REVERT JUMPDEST POP SELFBALANCE PUSH2 0x220 JUMP JUMPDEST CALLVALUE DUP1 ISZERO PUSH2 0x464 JUMPI PUSH1 0x0 DUP1 REVERT JUMPDEST POP PUSH2 0x208 PUSH2 0x127C JUMP JUMPDEST CALLVALUE DUP1 ISZERO PUSH2 0x479 JUMPI PUSH1 0x0 DUP1 REVERT JUMPDEST POP PUSH2 0x220 PUSH2 0x488 CALLDATASIZE PUSH1 0x4 PUSH2 0x19C8 JUMP JUMPDEST PUSH2 0x12F0 JUMP JUMPDEST CALLVALUE DUP1 ISZERO PUSH2 0x499 JUMPI PUSH1 0x0 DUP1 REVERT JUMPDEST POP PUSH2 0x220 PUSH1 0x2 SLOAD DUP2 JUMP JUMPDEST CALLVALUE DUP1 ISZERO PUSH2 0x4AF JUMPI PUSH1 0x0 DUP1 REVERT JUMPDEST POP PUSH1 0x0 SLOAD PUSH1 0x1 PUSH1 0x1 PUSH1 0xA0 SHL SUB AND PUSH2 0x32C JUMP JUMPDEST CALLVALUE DUP1 ISZERO PUSH2 0x4CD JUMPI PUSH1 0x0 DUP1 REVERT JUMPDEST POP PUSH1 0x7 SLOAD PUSH2 0x32C SWAP1 PUSH1 0x1 PUSH1 0x1 PUSH1 0xA0 SHL SUB AND DUP2 JUMP JUMPDEST CALLVALUE DUP1 ISZERO PUSH2 0x4ED JUMPI PUSH1 0x0 DUP1 REVERT JUMPDEST POP PUSH2 0x220 PUSH2 0x4FC CALLDATASIZE PUSH1 0x4 PUSH2 0x1A55 JUMP JUMPDEST PUSH2 0x138C JUMP JUMPDEST CALLVALUE DUP1 ISZERO PUSH2 0x50D JUMPI PUSH1 0x0 DUP1 REVERT JUMPDEST POP PUSH2 0x220 PUSH2 0x51C CALLDATASIZE PUSH1 0x4 PUSH2 0x19C8 JUMP JUMPDEST PUSH1 0x1 PUSH1 0x1 PUSH1 0xA0 SHL SUB AND PUSH1 0x0 SWAP1 DUP2 MSTORE PUSH1 0x5 PUSH1 0x20 MSTORE PUSH1 0x40 SWAP1 KECCAK256 SLOAD SWAP1 JUMP JUMPDEST CALLVALUE DUP1 ISZERO PUSH2 0x543 JUMPI PUSH1 0x0 DUP1 REVERT JUMPDEST POP PUSH2 0x557 PUSH2 0x552 CALLDATASIZE PUSH1 0x4 PUSH2 0x1A55 JUMP JUMPDEST PUSH2 0x1448 JUMP JUMPDEST PUSH1 0x40 DUP1 MLOAD SWAP3 DUP4 MSTORE PUSH1 0x20 DUP4 ADD SWAP2 SWAP1 SWAP2 MSTORE ADD PUSH2 0x22A JUMP JUMPDEST CALLVALUE DUP1 ISZERO PUSH2 0x578 JUMPI PUSH1 0x0 DUP1 REVERT JUMPDEST POP PUSH2 0x58C PUSH2 0x587 CALLDATASIZE PUSH1 0x4 PUSH2 0x19E2 JUMP JUMPDEST PUSH2 0x14C0 JUMP JUMPDEST PUSH1 0x40 DUP1 MLOAD PUSH1 0xFF SWAP1 SWAP8 AND DUP8 MSTORE PUSH1 0x20 DUP8 ADD SWAP6 SWAP1 SWAP6 MSTORE SWAP4 DUP6 ADD SWAP3 SWAP1 SWAP3 MSTORE PUSH1 0x60 DUP5 ADD MSTORE PUSH1 0x80 DUP4 ADD MSTORE PUSH1 0xA0 DUP3 ADD MSTORE PUSH1 0xC0 ADD PUSH2 0x22A JUMP JUMPDEST CALLVALUE DUP1 ISZERO PUSH2 0x5C9 JUMPI PUSH1 0x0 DUP1 REVERT JUMPDEST POP PUSH2 0x220 PUSH1 0x6 SLOAD DUP2 JUMP JUMPDEST CALLVALUE DUP1 ISZERO PUSH2 0x5DF JUMPI PUSH1 0x0 DUP1 REVERT JUMPDEST POP PUSH2 0x220 PUSH2 0x5EE CALLDATASIZE PUSH1 0x4 PUSH2 0x19C8 JUMP JUMPDEST PUSH1 0x1 PUSH1 0x1 PUSH1 0xA0 SHL SUB AND PUSH1 0x0 SWAP1 DUP2 MSTORE PUSH1 0x5 PUSH1 0x20 MSTORE PUSH1 0x40 SWAP1 KECCAK256 PUSH1 0x1 ADD SLOAD SWAP1 JUMP JUMPDEST CALLVALUE DUP1 ISZERO PUSH2 0x618 JUMPI PUSH1 0x0 DUP1 REVERT JUMPDEST POP PUSH2 0x220 PUSH8 0x16345785D8A0000 DUP2 JUMP JUMPDEST CALLVALUE DUP1 ISZERO PUSH2 0x634 JUMPI PUSH1 0x0 DUP1 REVERT JUMPDEST POP PUSH2 0x220 PUSH2 0x643 CALLDATASIZE PUSH1 0x4 PUSH2 0x19C8 JUMP JUMPDEST PUSH1 0x1 PUSH1 0x1 PUSH1 0xA0 SHL SUB AND PUSH1 0x0 SWAP1 DUP2 MSTORE PUSH1 0x5 PUSH1 0x20 MSTORE PUSH1 0x40 SWAP1 KECCAK256 PUSH1 0x6 ADD SLOAD SWAP1 JUMP JUMPDEST CALLVALUE DUP1 ISZERO PUSH2 0x66D JUMPI PUSH1 0x0 DUP1 REVERT JUMPDEST POP PUSH2 0x208 PUSH2 0x67C CALLDATASIZE PUSH1 0x4 PUSH2 0x19C8 JUMP JUMPDEST PUSH2 0x163A JUMP JUMPDEST CALLVALUE DUP1 ISZERO PUSH2 0x68D JUMPI PUSH1 0x0 DUP1 REVERT JUMPDEST POP PUSH2 0x208 PUSH2 0x69C CALLDATASIZE PUSH1 0x4 PUSH2 0x1A3D JUMP JUMPDEST PUSH2 0x1670 JUMP JUMPDEST PUSH1 0x7 SLOAD PUSH1 0x1 PUSH1 0x1 PUSH1 0xA0 SHL SUB AND CALLER EQ PUSH2 0x6B8 JUMPI PUSH1 0x0 DUP1 REVERT JUMPDEST TIMESTAMP PUSH1 0x6 SSTORE JUMP JUMPDEST PUSH1 0x1 PUSH1 0x1 PUSH1 0xA0 SHL SUB DUP2 AND PUSH1 0x0 SWAP1 DUP2 MSTORE PUSH1 0x5 PUSH1 0x20 MSTORE PUSH1 0x40 DUP2 KECCAK256 DUP2 DUP1 JUMPDEST DUP3 SLOAD DUP2 LT ISZERO PUSH2 0x9BA JUMPI DUP3 PUSH1 0x0 ADD DUP2 DUP2 SLOAD DUP2 LT PUSH2 0x705 JUMPI PUSH4 0x4E487B71 PUSH1 0xE0 SHL PUSH1 0x0 MSTORE PUSH1 0x32 PUSH1 0x4 MSTORE PUSH1 0x24 PUSH1 0x0 REVERT JUMPDEST SWAP1 PUSH1 0x0 MSTORE PUSH1 0x20 PUSH1 0x0 KECCAK256 SWAP1 PUSH1 0x6 MUL ADD PUSH1 0x5 ADD SLOAD DUP4 PUSH1 0x1 ADD SLOAD LT ISZERO PUSH2 0x9A8 JUMPI PUSH1 0x3 DUP4 PUSH1 0x0 ADD DUP3 DUP2 SLOAD DUP2 LT PUSH2 0x747 JUMPI PUSH4 0x4E487B71 PUSH1 0xE0 SHL PUSH1 0x0 MSTORE PUSH1 0x32 PUSH1 0x4 MSTORE PUSH1 0x24 PUSH1 0x0 REVERT JUMPDEST PUSH1 0x0 SWAP2 DUP3 MSTORE PUSH1 0x20 SWAP1 SWAP2 KECCAK256 PUSH1 0x6 SWAP1 SWAP2 MUL ADD SLOAD PUSH1 0xFF AND LT ISZERO PUSH2 0x922 JUMPI PUSH1 0x0 PUSH2 0x7EA PUSH2 0x3E8 PUSH2 0x7E4 DUP7 PUSH1 0x0 ADD DUP6 DUP2 SLOAD DUP2 LT PUSH2 0x78F JUMPI PUSH4 0x4E487B71 PUSH1 0xE0 SHL PUSH1 0x0 MSTORE PUSH1 0x32 PUSH1 0x4 MSTORE PUSH1 0x24 PUSH1 0x0 REVERT JUMPDEST SWAP1 PUSH1 0x0 MSTORE PUSH1 0x20 PUSH1 0x0 KECCAK256 SWAP1 PUSH1 0x6 MUL ADD PUSH1 0x1 ADD SLOAD DUP8 PUSH1 0x0 ADD DUP7 DUP2 SLOAD DUP2 LT PUSH2 0x7C4 JUMPI PUSH4 0x4E487B71 PUSH1 0xE0 SHL PUSH1 0x0 MSTORE PUSH1 0x32 PUSH1 0x4 MSTORE PUSH1 0x24 PUSH1 0x0 REVERT JUMPDEST SWAP1 PUSH1 0x0 MSTORE PUSH1 0x20 PUSH1 0x0 KECCAK256 SWAP1 PUSH1 0x6 MUL ADD PUSH1 0x2 ADD SLOAD PUSH2 0x1738 SWAP1 SWAP2 SWAP1 PUSH4 0xFFFFFFFF AND JUMP JUMPDEST SWAP1 PUSH2 0x17BE JUMP JUMPDEST SWAP1 POP PUSH1 0x0 DUP5 PUSH1 0x1 ADD SLOAD DUP6 PUSH1 0x0 ADD DUP5 DUP2 SLOAD DUP2 LT PUSH2 0x816 JUMPI PUSH4 0x4E487B71 PUSH1 0xE0 SHL PUSH1 0x0 MSTORE PUSH1 0x32 PUSH1 0x4 MSTORE PUSH1 0x24 PUSH1 0x0 REVERT JUMPDEST SWAP1 PUSH1 0x0 MSTORE PUSH1 0x20 PUSH1 0x0 KECCAK256 SWAP1 PUSH1 0x6 MUL ADD PUSH1 0x4 ADD SLOAD GT PUSH2 0x837 JUMPI DUP5 PUSH1 0x1 ADD SLOAD PUSH2 0x86D JUMP JUMPDEST DUP5 PUSH1 0x0 ADD DUP4 DUP2 SLOAD DUP2 LT PUSH2 0x85A JUMPI PUSH4 0x4E487B71 PUSH1 0xE0 SHL PUSH1 0x0 MSTORE PUSH1 0x32 PUSH1 0x4 MSTORE PUSH1 0x24 PUSH1 0x0 REVERT JUMPDEST SWAP1 PUSH1 0x0 MSTORE PUSH1 0x20 PUSH1 0x0 KECCAK256 SWAP1 PUSH1 0x6 MUL ADD PUSH1 0x4 ADD SLOAD JUMPDEST SWAP1 POP PUSH1 0x0 TIMESTAMP DUP7 PUSH1 0x0 ADD DUP6 DUP2 SLOAD DUP2 LT PUSH2 0x895 JUMPI PUSH4 0x4E487B71 PUSH1 0xE0 SHL PUSH1 0x0 MSTORE PUSH1 0x32 PUSH1 0x4 MSTORE PUSH1 0x24 PUSH1 0x0 REVERT JUMPDEST SWAP1 PUSH1 0x0 MSTORE PUSH1 0x20 PUSH1 0x0 KECCAK256 SWAP1 PUSH1 0x6 MUL ADD PUSH1 0x5 ADD SLOAD LT PUSH2 0x8B2 JUMPI TIMESTAMP PUSH2 0x8E8 JUMP JUMPDEST DUP6 PUSH1 0x0 ADD DUP5 DUP2 SLOAD DUP2 LT PUSH2 0x8D5 JUMPI PUSH4 0x4E487B71 PUSH1 0xE0 SHL PUSH1 0x0 MSTORE PUSH1 0x32 PUSH1 0x4 MSTORE PUSH1 0x24 PUSH1 0x0 REVERT JUMPDEST SWAP1 PUSH1 0x0 MSTORE PUSH1 0x20 PUSH1 0x0 KECCAK256 SWAP1 PUSH1 0x6 MUL ADD PUSH1 0x5 ADD SLOAD JUMPDEST SWAP1 POP DUP1 DUP3 LT ISZERO PUSH2 0x91A JUMPI PUSH2 0x917 PUSH2 0x910 PUSH3 0x15180 PUSH2 0x7E4 PUSH2 0x909 DUP6 DUP8 PUSH2 0x1823 JUMP JUMPDEST DUP8 SWAP1 PUSH2 0x1738 JUMP JUMPDEST DUP7 SWAP1 PUSH2 0x1881 JUMP JUMPDEST SWAP5 POP JUMPDEST POP POP POP PUSH2 0x9A8 JUMP JUMPDEST DUP3 PUSH1 0x0 ADD DUP2 DUP2 SLOAD DUP2 LT PUSH2 0x945 JUMPI PUSH4 0x4E487B71 PUSH1 0xE0 SHL PUSH1 0x0 MSTORE PUSH1 0x32 PUSH1 0x4 MSTORE PUSH1 0x24 PUSH1 0x0 REVERT JUMPDEST SWAP1 PUSH1 0x0 MSTORE PUSH1 0x20 PUSH1 0x0 KECCAK256 SWAP1 PUSH1 0x6 MUL ADD PUSH1 0x5 ADD SLOAD TIMESTAMP GT ISZERO PUSH2 0x9A8 JUMPI PUSH2 0x9A5 DUP4 PUSH1 0x0 ADD DUP3 DUP2 SLOAD DUP2 LT PUSH2 0x984 JUMPI PUSH4 0x4E487B71 PUSH1 0xE0 SHL PUSH1 0x0 MSTORE PUSH1 0x32 PUSH1 0x4 MSTORE PUSH1 0x24 PUSH1 0x0 REVERT JUMPDEST SWAP1 PUSH1 0x0 MSTORE PUSH1 0x20 PUSH1 0x0 KECCAK256 SWAP1 PUSH1 0x6 MUL ADD PUSH1 0x3 ADD SLOAD DUP4 PUSH2 0x1881 SWAP1 SWAP2 SWAP1 PUSH4 0xFFFFFFFF AND JUMP JUMPDEST SWAP2 POP JUMPDEST DUP1 PUSH2 0x9B2 DUP2 PUSH2 0x1B2D JUMP JUMPDEST SWAP2 POP POP PUSH2 0x6D9 JUMP JUMPDEST POP SWAP4 SWAP3 POP POP POP JUMP JUMPDEST PUSH1 0x0 PUSH2 0x9F2 PUSH2 0x9D0 DUP4 PUSH2 0x6BE JUMP JUMPDEST PUSH1 0x1 PUSH1 0x1 PUSH1 0xA0 SHL SUB DUP5 AND PUSH1 0x0 SWAP1 DUP2 MSTORE PUSH1 0x5 PUSH1 0x20 MSTORE PUSH1 0x40 SWAP1 KECCAK256 PUSH1 0x6 ADD SLOAD SWAP1 PUSH2 0x1881 JUMP JUMPDEST SWAP3 SWAP2 POP POP JUMP JUMPDEST CALLER PUSH1 0x0 DUP2 DUP2 MSTORE PUSH1 0x5 PUSH1 0x20 MSTORE PUSH1 0x40 DUP2 KECCAK256 SWAP2 PUSH2 0xA11 SWAP1 PUSH2 0x6BE JUMP JUMPDEST SWAP1 POP PUSH1 0x0 PUSH2 0xA27 PUSH2 0x2710 PUSH2 0x7E4 DUP5 PUSH2 0x3E8 PUSH2 0x1738 JUMP JUMPDEST SWAP1 POP PUSH2 0xA33 DUP3 DUP3 PUSH2 0x1823 JUMP JUMPDEST CALLER PUSH1 0x0 SWAP1 DUP2 MSTORE PUSH1 0x5 PUSH1 0x20 MSTORE PUSH1 0x40 SWAP1 KECCAK256 PUSH1 0x6 ADD SLOAD SWAP1 SWAP3 POP DUP1 ISZERO PUSH2 0xA63 JUMPI PUSH1 0x0 PUSH1 0x6 DUP6 ADD SSTORE PUSH2 0xA60 DUP4 DUP3 PUSH2 0x1881 JUMP JUMPDEST SWAP3 POP JUMPDEST PUSH1 0x0 DUP4 GT PUSH2 0xAB0 JUMPI PUSH1 0x40 MLOAD PUSH3 0x461BCD PUSH1 0xE5 SHL DUP2 MSTORE PUSH1 0x20 PUSH1 0x4 DUP3 ADD MSTORE PUSH1 0x15 PUSH1 0x24 DUP3 ADD MSTORE PUSH21 0x5573657220686173206E6F206469766964656E6473 PUSH1 0x58 SHL PUSH1 0x44 DUP3 ADD MSTORE PUSH1 0x64 ADD JUMPDEST PUSH1 0x40 MLOAD DUP1 SWAP2 SUB SWAP1 REVERT JUMPDEST SELFBALANCE DUP4 DUP2 LT ISZERO PUSH2 0xABD JUMPI DUP1 SWAP4 POP JUMPDEST TIMESTAMP PUSH1 0x1 DUP7 ADD SSTORE PUSH1 0x40 MLOAD CALLER SWAP1 DUP6 ISZERO PUSH2 0x8FC MUL SWAP1 DUP7 SWAP1 PUSH1 0x0 DUP2 DUP2 DUP2 DUP6 DUP9 DUP9 CALL SWAP4 POP POP POP POP ISZERO DUP1 ISZERO PUSH2 0xAF0 JUMPI RETURNDATASIZE PUSH1 0x0 DUP1 RETURNDATACOPY RETURNDATASIZE PUSH1 0x0 REVERT JUMPDEST POP PUSH1 0x40 MLOAD DUP5 DUP2 MSTORE CALLER SWAP1 PUSH32 0x7084F5476618D8E60B11EF0D7D3F06914655ADB8793E28FF7F018D4C76D505D5 SWAP1 PUSH1 0x20 ADD PUSH1 0x40 MLOAD DUP1 SWAP2 SUB SWAP1 LOG2 POP POP POP POP POP JUMP JUMPDEST PUSH8 0x16345785D8A0000 CALLVALUE LT ISZERO PUSH2 0xB71 JUMPI PUSH1 0x40 MLOAD PUSH3 0x461BCD PUSH1 0xE5 SHL DUP2 MSTORE PUSH1 0x20 PUSH1 0x4 DUP3 ADD MSTORE PUSH1 0x9 PUSH1 0x24 DUP3 ADD MSTORE PUSH9 0x1D1BDBC81CDB585B1B PUSH1 0xBA SHL PUSH1 0x44 DUP3 ADD MSTORE PUSH1 0x64 ADD PUSH2 0xAA7 JUMP JUMPDEST PUSH1 0x6 DUP2 PUSH1 0xFF AND LT PUSH2 0xBB3 JUMPI PUSH1 0x40 MLOAD PUSH3 0x461BCD PUSH1 0xE5 SHL DUP2 MSTORE PUSH1 0x20 PUSH1 0x4 DUP3 ADD MSTORE PUSH1 0xC PUSH1 0x24 DUP3 ADD MSTORE PUSH12 0x24B73B30B634B210383630B7 PUSH1 0xA1 SHL PUSH1 0x44 DUP3 ADD MSTORE PUSH1 0x64 ADD PUSH2 0xAA7 JUMP JUMPDEST TIMESTAMP PUSH1 0x6 SLOAD LT PUSH2 0xC04 JUMPI PUSH1 0x40 MLOAD PUSH3 0x461BCD PUSH1 0xE5 SHL DUP2 MSTORE PUSH1 0x20 PUSH1 0x4 DUP3 ADD MSTORE PUSH1 0x1B PUSH1 0x24 DUP3 ADD MSTORE PUSH32 0x636F6E7472616374206861736E60742073746172746564207965740000000000 PUSH1 0x44 DUP3 ADD MSTORE PUSH1 0x64 ADD PUSH2 0xAA7 JUMP JUMPDEST PUSH1 0x0 PUSH2 0xC17 PUSH2 0x3E8 PUSH2 0x7E4 CALLVALUE PUSH1 0x96 PUSH2 0x1738 JUMP JUMPDEST PUSH1 0x7 SLOAD PUSH1 0x40 MLOAD SWAP2 SWAP3 POP PUSH1 0x1 PUSH1 0x1 PUSH1 0xA0 SHL SUB AND SWAP1 DUP3 ISZERO PUSH2 0x8FC MUL SWAP1 DUP4 SWAP1 PUSH1 0x0 DUP2 DUP2 DUP2 DUP6 DUP9 DUP9 CALL SWAP4 POP POP POP POP ISZERO DUP1 ISZERO PUSH2 0xC52 JUMPI RETURNDATASIZE PUSH1 0x0 DUP1 RETURNDATACOPY RETURNDATASIZE PUSH1 0x0 REVERT JUMPDEST POP PUSH1 0x40 MLOAD DUP2 DUP2 MSTORE CALLER SWAP1 PUSH32 0x2899DC8C12DEF1CAA9ACCB64257CF2FD9F960F21BB27A560A757EAE3C2EC43C1 SWAP1 PUSH1 0x20 ADD PUSH1 0x40 MLOAD DUP1 SWAP2 SUB SWAP1 LOG2 CALLER PUSH1 0x0 SWAP1 DUP2 MSTORE PUSH1 0x5 PUSH1 0x20 MSTORE PUSH1 0x40 SWAP1 KECCAK256 PUSH1 0x2 DUP2 ADD SLOAD PUSH1 0x1 PUSH1 0x1 PUSH1 0xA0 SHL SUB AND PUSH2 0xDF7 JUMPI PUSH1 0x1 PUSH1 0x1 PUSH1 0xA0 SHL SUB DUP5 AND PUSH1 0x0 SWAP1 DUP2 MSTORE PUSH1 0x5 PUSH1 0x20 MSTORE PUSH1 0x40 SWAP1 KECCAK256 SLOAD ISZERO DUP1 ISZERO SWAP1 PUSH2 0xCD9 JUMPI POP PUSH1 0x1 PUSH1 0x1 PUSH1 0xA0 SHL SUB DUP5 AND CALLER EQ ISZERO JUMPDEST ISZERO PUSH2 0xCFC JUMPI PUSH1 0x2 DUP2 ADD DUP1 SLOAD PUSH1 0x1 PUSH1 0x1 PUSH1 0xA0 SHL SUB NOT AND PUSH1 0x1 PUSH1 0x1 PUSH1 0xA0 SHL SUB DUP7 AND OR SWAP1 SSTORE JUMPDEST PUSH1 0x2 DUP2 ADD SLOAD PUSH1 0x1 PUSH1 0x1 PUSH1 0xA0 SHL SUB AND PUSH1 0x0 JUMPDEST PUSH1 0x3 DUP2 LT ISZERO PUSH2 0xDF4 JUMPI PUSH1 0x1 PUSH1 0x1 PUSH1 0xA0 SHL SUB DUP3 AND ISZERO PUSH2 0xDDD JUMPI PUSH2 0xD79 PUSH1 0x1 PUSH1 0x5 PUSH1 0x0 DUP6 PUSH1 0x1 PUSH1 0x1 PUSH1 0xA0 SHL SUB AND PUSH1 0x1 PUSH1 0x1 PUSH1 0xA0 SHL SUB AND DUP2 MSTORE PUSH1 0x20 ADD SWAP1 DUP2 MSTORE PUSH1 0x20 ADD PUSH1 0x0 KECCAK256 PUSH1 0x3 ADD DUP4 PUSH1 0x3 DUP2 LT PUSH2 0xD71 JUMPI PUSH4 0x4E487B71 PUSH1 0xE0 SHL PUSH1 0x0 MSTORE PUSH1 0x32 PUSH1 0x4 MSTORE PUSH1 0x24 PUSH1 0x0 REVERT JUMPDEST ADD SLOAD SWAP1 PUSH2 0x1881 JUMP JUMPDEST PUSH1 0x1 PUSH1 0x1 PUSH1 0xA0 SHL SUB DUP4 AND PUSH1 0x0 SWAP1 DUP2 MSTORE PUSH1 0x5 PUSH1 0x20 MSTORE PUSH1 0x40 SWAP1 KECCAK256 PUSH1 0x3 SWAP1 DUP2 ADD SWAP1 DUP4 SWAP1 DUP2 LT PUSH2 0xDB5 JUMPI PUSH4 0x4E487B71 PUSH1 0xE0 SHL PUSH1 0x0 MSTORE PUSH1 0x32 PUSH1 0x4 MSTORE PUSH1 0x24 PUSH1 0x0 REVERT JUMPDEST ADD SSTORE PUSH1 0x1 PUSH1 0x1 PUSH1 0xA0 SHL SUB SWAP2 DUP3 AND PUSH1 0x0 SWAP1 DUP2 MSTORE PUSH1 0x5 PUSH1 0x20 MSTORE PUSH1 0x40 SWAP1 KECCAK256 PUSH1 0x2 ADD SLOAD SWAP1 SWAP2 AND SWAP1 PUSH2 0xDE2 JUMP JUMPDEST PUSH2 0xDF4 JUMP JUMPDEST DUP1 PUSH2 0xDEC DUP2 PUSH2 0x1B2D JUMP JUMPDEST SWAP2 POP POP PUSH2 0xD0D JUMP JUMPDEST POP POP JUMPDEST PUSH1 0x2 DUP2 ADD SLOAD PUSH1 0x1 PUSH1 0x1 PUSH1 0xA0 SHL SUB AND ISZERO PUSH2 0xF68 JUMPI PUSH1 0x2 DUP2 ADD SLOAD PUSH1 0x1 PUSH1 0x1 PUSH1 0xA0 SHL SUB AND PUSH1 0x0 JUMPDEST PUSH1 0x3 DUP2 LT ISZERO PUSH2 0xF65 JUMPI PUSH1 0x1 PUSH1 0x1 PUSH1 0xA0 SHL SUB DUP3 AND ISZERO PUSH2 0xF4E JUMPI PUSH1 0x0 PUSH2 0xE79 PUSH2 0x3E8 PUSH2 0x7E4 PUSH1 0x1 DUP6 DUP2 SLOAD DUP2 LT PUSH2 0xE5F JUMPI PUSH4 0x4E487B71 PUSH1 0xE0 SHL PUSH1 0x0 MSTORE PUSH1 0x32 PUSH1 0x4 MSTORE PUSH1 0x24 PUSH1 0x0 REVERT JUMPDEST SWAP1 PUSH1 0x0 MSTORE PUSH1 0x20 PUSH1 0x0 KECCAK256 ADD SLOAD CALLVALUE PUSH2 0x1738 SWAP1 SWAP2 SWAP1 PUSH4 0xFFFFFFFF AND JUMP JUMPDEST PUSH1 0x1 PUSH1 0x1 PUSH1 0xA0 SHL SUB DUP5 AND PUSH1 0x0 SWAP1 DUP2 MSTORE PUSH1 0x5 PUSH1 0x20 MSTORE PUSH1 0x40 SWAP1 KECCAK256 PUSH1 0x6 ADD SLOAD SWAP1 SWAP2 POP PUSH2 0xEA2 SWAP1 DUP3 PUSH2 0x1881 JUMP JUMPDEST PUSH1 0x1 PUSH1 0x1 PUSH1 0xA0 SHL SUB DUP5 AND PUSH1 0x0 SWAP1 DUP2 MSTORE PUSH1 0x5 PUSH1 0x20 MSTORE PUSH1 0x40 SWAP1 KECCAK256 PUSH1 0x6 DUP2 ADD SWAP2 SWAP1 SWAP2 SSTORE PUSH1 0x7 ADD SLOAD PUSH2 0xED0 SWAP1 DUP3 PUSH2 0x1881 JUMP JUMPDEST PUSH1 0x1 PUSH1 0x1 PUSH1 0xA0 SHL SUB DUP5 AND PUSH1 0x0 DUP2 DUP2 MSTORE PUSH1 0x5 PUSH1 0x20 SWAP1 DUP2 MSTORE PUSH1 0x40 SWAP2 DUP3 SWAP1 KECCAK256 PUSH1 0x7 ADD SWAP4 SWAP1 SWAP4 SSTORE MLOAD DUP4 DUP2 MSTORE DUP5 SWAP3 CALLER SWAP3 SWAP2 PUSH32 0xD41F7E766EEBCC7FF42B11AC8691BDF864DB4AFC0C55E71D629D54EDCE460D98 SWAP2 ADD PUSH1 0x40 MLOAD DUP1 SWAP2 SUB SWAP1 LOG4 POP PUSH1 0x1 PUSH1 0x1 PUSH1 0xA0 SHL SUB SWAP2 DUP3 AND PUSH1 0x0 SWAP1 DUP2 MSTORE PUSH1 0x5 PUSH1 0x20 MSTORE PUSH1 0x40 SWAP1 KECCAK256 PUSH1 0x2 ADD SLOAD SWAP1 SWAP2 AND SWAP1 PUSH2 0xF53 JUMP JUMPDEST PUSH2 0xF65 JUMP JUMPDEST DUP1 PUSH2 0xF5D DUP2 PUSH2 0x1B2D JUMP JUMPDEST SWAP2 POP POP PUSH2 0xE1B JUMP JUMPDEST POP POP JUMPDEST DUP1 SLOAD PUSH2 0xFA8 JUMPI TIMESTAMP PUSH1 0x1 DUP3 ADD SSTORE PUSH1 0x40 MLOAD CALLER DUP2 MSTORE PUSH32 0x9FD565CD14C3C391679EB0CAD12A14DCF7534E9D3462BCB9B67A098A9BBBC24A SWAP1 PUSH1 0x20 ADD PUSH1 0x40 MLOAD DUP1 SWAP2 SUB SWAP1 LOG1 JUMPDEST PUSH1 0x0 DUP1 PUSH1 0x0 PUSH2 0xFB7 DUP7 CALLVALUE PUSH2 0x10E9 JUMP JUMPDEST SWAP3 POP SWAP3 POP SWAP3 POP DUP4 PUSH1 0x0 ADD PUSH1 0x40 MLOAD DUP1 PUSH1 0xC0 ADD PUSH1 0x40 MSTORE DUP1 DUP9 PUSH1 0xFF AND DUP2 MSTORE PUSH1 0x20 ADD DUP6 DUP2 MSTORE PUSH1 0x20 ADD CALLVALUE DUP2 MSTORE PUSH1 0x20 ADD DUP5 DUP2 MSTORE PUSH1 0x20 ADD TIMESTAMP DUP2 MSTORE PUSH1 0x20 ADD DUP4 DUP2 MSTORE POP SWAP1 DUP1 PUSH1 0x1 DUP2 SLOAD ADD DUP1 DUP3 SSTORE DUP1 SWAP2 POP POP PUSH1 0x1 SWAP1 SUB SWAP1 PUSH1 0x0 MSTORE PUSH1 0x20 PUSH1 0x0 KECCAK256 SWAP1 PUSH1 0x6 MUL ADD PUSH1 0x0 SWAP1 SWAP2 SWAP1 SWAP2 SWAP1 SWAP2 POP PUSH1 0x0 DUP3 ADD MLOAD DUP2 PUSH1 0x0 ADD PUSH1 0x0 PUSH2 0x100 EXP DUP2 SLOAD DUP2 PUSH1 0xFF MUL NOT AND SWAP1 DUP4 PUSH1 0xFF AND MUL OR SWAP1 SSTORE POP PUSH1 0x20 DUP3 ADD MLOAD DUP2 PUSH1 0x1 ADD SSTORE PUSH1 0x40 DUP3 ADD MLOAD DUP2 PUSH1 0x2 ADD SSTORE PUSH1 0x60 DUP3 ADD MLOAD DUP2 PUSH1 0x3 ADD SSTORE PUSH1 0x80 DUP3 ADD MLOAD DUP2 PUSH1 0x4 ADD SSTORE PUSH1 0xA0 DUP3 ADD MLOAD DUP2 PUSH1 0x5 ADD SSTORE POP POP PUSH2 0x1084 CALLVALUE PUSH1 0x2 SLOAD PUSH2 0x1881 SWAP1 SWAP2 SWAP1 PUSH4 0xFFFFFFFF AND JUMP JUMPDEST PUSH1 0x2 SSTORE PUSH1 0x40 DUP1 MLOAD PUSH1 0xFF DUP9 AND DUP2 MSTORE PUSH1 0x20 DUP2 ADD DUP6 SWAP1 MSTORE CALLVALUE DUP2 DUP4 ADD MSTORE PUSH1 0x60 DUP2 ADD DUP5 SWAP1 MSTORE TIMESTAMP PUSH1 0x80 DUP3 ADD MSTORE PUSH1 0xA0 DUP2 ADD DUP4 SWAP1 MSTORE SWAP1 MLOAD CALLER SWAP2 PUSH32 0x84E02DAA69BDB087C9FE8D3041ABCA495512CB14E723070F6D1D4EFFACE82E5D SWAP2 SWAP1 DUP2 SWAP1 SUB PUSH1 0xC0 ADD SWAP1 LOG2 POP POP POP POP POP POP POP JUMP JUMPDEST PUSH1 0x0 DUP1 PUSH1 0x0 PUSH2 0x10F7 DUP6 PUSH2 0x138C JUMP JUMPDEST SWAP3 POP PUSH1 0x3 DUP6 PUSH1 0xFF AND LT ISZERO PUSH2 0x115A JUMPI PUSH2 0x1153 PUSH1 0x4 DUP7 PUSH1 0xFF AND DUP2 SLOAD DUP2 LT PUSH2 0x112C JUMPI PUSH4 0x4E487B71 PUSH1 0xE0 SHL PUSH1 0x0 MSTORE PUSH1 0x32 PUSH1 0x4 MSTORE PUSH1 0x24 PUSH1 0x0 REVERT JUMPDEST PUSH1 0x0 SWAP2 DUP3 MSTORE PUSH1 0x20 SWAP1 SWAP2 KECCAK256 PUSH1 0x2 SWAP1 SWAP2 MUL ADD SLOAD PUSH2 0x114D PUSH2 0x3E8 PUSH2 0x7E4 DUP9 DUP9 PUSH2 0x1738 JUMP JUMPDEST SWAP1 PUSH2 0x1738 JUMP JUMPDEST SWAP2 POP PUSH2 0x11DA JUMP JUMPDEST PUSH1 0x6 DUP6 PUSH1 0xFF AND LT ISZERO PUSH2 0x11DA JUMPI PUSH1 0x0 JUMPDEST PUSH1 0x4 DUP7 PUSH1 0xFF AND DUP2 SLOAD DUP2 LT PUSH2 0x118D JUMPI PUSH4 0x4E487B71 PUSH1 0xE0 SHL PUSH1 0x0 MSTORE PUSH1 0x32 PUSH1 0x4 MSTORE PUSH1 0x24 PUSH1 0x0 REVERT JUMPDEST SWAP1 PUSH1 0x0 MSTORE PUSH1 0x20 PUSH1 0x0 KECCAK256 SWAP1 PUSH1 0x2 MUL ADD PUSH1 0x0 ADD SLOAD DUP2 LT ISZERO PUSH2 0x11D8 JUMPI PUSH2 0x11C4 PUSH2 0x11BD PUSH2 0x3E8 PUSH2 0x7E4 DUP8 PUSH2 0x114D DUP11 DUP10 PUSH2 0x1881 JUMP JUMPDEST DUP5 SWAP1 PUSH2 0x1881 JUMP JUMPDEST SWAP3 POP DUP1 PUSH2 0x11D0 DUP2 PUSH2 0x1B2D JUMP JUMPDEST SWAP2 POP POP PUSH2 0x1169 JUMP JUMPDEST POP JUMPDEST PUSH2 0x1226 PUSH2 0x121F PUSH3 0x15180 PUSH1 0x4 DUP9 PUSH1 0xFF AND DUP2 SLOAD DUP2 LT PUSH2 0x1208 JUMPI PUSH4 0x4E487B71 PUSH1 0xE0 SHL PUSH1 0x0 MSTORE PUSH1 0x32 PUSH1 0x4 MSTORE PUSH1 0x24 PUSH1 0x0 REVERT JUMPDEST PUSH1 0x0 SWAP2 DUP3 MSTORE PUSH1 0x20 SWAP1 SWAP2 KECCAK256 PUSH1 0x2 SWAP1 SWAP2 MUL ADD SLOAD SWAP1 PUSH2 0x1738 JUMP JUMPDEST TIMESTAMP SWAP1 PUSH2 0x1881 JUMP JUMPDEST SWAP1 POP SWAP3 POP SWAP3 POP SWAP3 JUMP JUMPDEST PUSH1 0x1 DUP2 DUP2 SLOAD DUP2 LT PUSH2 0x123F JUMPI PUSH1 0x0 DUP1 REVERT JUMPDEST PUSH1 0x0 SWAP2 DUP3 MSTORE PUSH1 0x20 SWAP1 SWAP2 KECCAK256 ADD SLOAD SWAP1 POP DUP2 JUMP JUMPDEST PUSH1 0x1 PUSH1 0x1 PUSH1 0xA0 SHL SUB DUP2 AND PUSH1 0x0 SWAP1 DUP2 MSTORE PUSH1 0x5 PUSH1 0x20 MSTORE PUSH1 0x40 DUP2 KECCAK256 PUSH1 0x6 DUP2 ADD SLOAD PUSH1 0x7 SWAP1 SWAP2 ADD SLOAD PUSH2 0x9F2 SWAP2 PUSH2 0x1823 JUMP JUMPDEST PUSH1 0x0 SLOAD PUSH1 0x1 PUSH1 0x1 PUSH1 0xA0 SHL SUB AND CALLER EQ PUSH2 0x12A6 JUMPI PUSH1 0x40 MLOAD PUSH3 0x461BCD PUSH1 0xE5 SHL DUP2 MSTORE PUSH1 0x4 ADD PUSH2 0xAA7 SWAP1 PUSH2 0x1A8A JUMP JUMPDEST PUSH1 0x0 DUP1 SLOAD PUSH1 0x40 MLOAD PUSH1 0x1 PUSH1 0x1 PUSH1 0xA0 SHL SUB SWAP1 SWAP2 AND SWAP1 PUSH32 0x8BE0079C531659141344CD1FD0A4F28419497F9722A3DAAFE3B4186F6B6457E0 SWAP1 DUP4 SWAP1 LOG3 PUSH1 0x0 DUP1 SLOAD PUSH1 0x1 PUSH1 0x1 PUSH1 0xA0 SHL SUB NOT AND SWAP1 SSTORE JUMP JUMPDEST PUSH1 0x0 DUP1 JUMPDEST PUSH1 0x1 PUSH1 0x1 PUSH1 0xA0 SHL SUB DUP4 AND PUSH1 0x0 SWAP1 DUP2 MSTORE PUSH1 0x5 PUSH1 0x20 MSTORE PUSH1 0x40 SWAP1 KECCAK256 SLOAD DUP2 LT ISZERO PUSH2 0x1386 JUMPI PUSH1 0x1 PUSH1 0x1 PUSH1 0xA0 SHL SUB DUP4 AND PUSH1 0x0 SWAP1 DUP2 MSTORE PUSH1 0x5 PUSH1 0x20 MSTORE PUSH1 0x40 SWAP1 KECCAK256 DUP1 SLOAD PUSH2 0x1372 SWAP2 SWAP1 DUP4 SWAP1 DUP2 LT PUSH2 0x1351 JUMPI PUSH4 0x4E487B71 PUSH1 0xE0 SHL PUSH1 0x0 MSTORE PUSH1 0x32 PUSH1 0x4 MSTORE PUSH1 0x24 PUSH1 0x0 REVERT JUMPDEST SWAP1 PUSH1 0x0 MSTORE PUSH1 0x20 PUSH1 0x0 KECCAK256 SWAP1 PUSH1 0x6 MUL ADD PUSH1 0x2 ADD SLOAD DUP4 PUSH2 0x1881 SWAP1 SWAP2 SWAP1 PUSH4 0xFFFFFFFF AND JUMP JUMPDEST SWAP2 POP DUP1 PUSH2 0x137E DUP2 PUSH2 0x1B2D JUMP JUMPDEST SWAP2 POP POP PUSH2 0x12F4 JUMP JUMPDEST POP SWAP2 SWAP1 POP JUMP JUMPDEST PUSH1 0x0 PUSH1 0x6 SLOAD TIMESTAMP GT ISZERO PUSH2 0x1406 JUMPI PUSH2 0x9F2 PUSH2 0x13C2 PUSH3 0x15180 PUSH2 0x7E4 PUSH2 0x13BA PUSH1 0x6 SLOAD TIMESTAMP PUSH2 0x1823 SWAP1 SWAP2 SWAP1 PUSH4 0xFFFFFFFF AND JUMP JUMPDEST PUSH1 0x3 SWAP1 PUSH2 0x1738 JUMP JUMPDEST PUSH1 0x4 DUP5 PUSH1 0xFF AND DUP2 SLOAD DUP2 LT PUSH2 0x13E6 JUMPI PUSH4 0x4E487B71 PUSH1 0xE0 SHL PUSH1 0x0 MSTORE PUSH1 0x32 PUSH1 0x4 MSTORE PUSH1 0x24 PUSH1 0x0 REVERT JUMPDEST SWAP1 PUSH1 0x0 MSTORE PUSH1 0x20 PUSH1 0x0 KECCAK256 SWAP1 PUSH1 0x2 MUL ADD PUSH1 0x1 ADD SLOAD PUSH2 0x1881 SWAP1 SWAP2 SWAP1 PUSH4 0xFFFFFFFF AND JUMP JUMPDEST PUSH1 0x4 DUP3 PUSH1 0xFF AND DUP2 SLOAD DUP2 LT PUSH2 0x142A JUMPI PUSH4 0x4E487B71 PUSH1 0xE0 SHL PUSH1 0x0 MSTORE PUSH1 0x32 PUSH1 0x4 MSTORE PUSH1 0x24 PUSH1 0x0 REVERT JUMPDEST SWAP1 PUSH1 0x0 MSTORE PUSH1 0x20 PUSH1 0x0 KECCAK256 SWAP1 PUSH1 0x2 MUL ADD PUSH1 0x1 ADD SLOAD SWAP1 POP SWAP2 SWAP1 POP JUMP JUMPDEST SWAP2 SWAP1 POP JUMP JUMPDEST PUSH1 0x0 DUP1 PUSH1 0x4 DUP4 PUSH1 0xFF AND DUP2 SLOAD DUP2 LT PUSH2 0x146F JUMPI PUSH4 0x4E487B71 PUSH1 0xE0 SHL PUSH1 0x0 MSTORE PUSH1 0x32 PUSH1 0x4 MSTORE PUSH1 0x24 PUSH1 0x0 REVERT JUMPDEST SWAP1 PUSH1 0x0 MSTORE PUSH1 0x20 PUSH1 0x0 KECCAK256 SWAP1 PUSH1 0x2 MUL ADD PUSH1 0x0 ADD SLOAD SWAP2 POP PUSH1 0x4 DUP4 PUSH1 0xFF AND DUP2 SLOAD DUP2 LT PUSH2 0x14A7 JUMPI PUSH4 0x4E487B71 PUSH1 0xE0 SHL PUSH1 0x0 MSTORE PUSH1 0x32 PUSH1 0x4 MSTORE PUSH1 0x24 PUSH1 0x0 REVERT JUMPDEST SWAP1 PUSH1 0x0 MSTORE PUSH1 0x20 PUSH1 0x0 KECCAK256 SWAP1 PUSH1 0x2 MUL ADD PUSH1 0x1 ADD SLOAD SWAP1 POP SWAP2 POP SWAP2 JUMP JUMPDEST PUSH1 0x1 PUSH1 0x1 PUSH1 0xA0 SHL SUB DUP3 AND PUSH1 0x0 SWAP1 DUP2 MSTORE PUSH1 0x5 PUSH1 0x20 MSTORE PUSH1 0x40 DUP2 KECCAK256 DUP1 SLOAD DUP3 SWAP2 DUP3 SWAP2 DUP3 SWAP2 DUP3 SWAP2 DUP3 SWAP2 SWAP1 DUP2 SWAP1 DUP10 SWAP1 DUP2 LT PUSH2 0x1505 JUMPI PUSH4 0x4E487B71 PUSH1 0xE0 SHL PUSH1 0x0 MSTORE PUSH1 0x32 PUSH1 0x4 MSTORE PUSH1 0x24 PUSH1 0x0 REVERT JUMPDEST PUSH1 0x0 SWAP2 DUP3 MSTORE PUSH1 0x20 SWAP1 SWAP2 KECCAK256 PUSH1 0x6 SWAP1 SWAP2 MUL ADD SLOAD DUP2 SLOAD PUSH1 0xFF SWAP1 SWAP2 AND SWAP8 POP DUP2 SWAP1 DUP10 SWAP1 DUP2 LT PUSH2 0x153F JUMPI PUSH4 0x4E487B71 PUSH1 0xE0 SHL PUSH1 0x0 MSTORE PUSH1 0x32 PUSH1 0x4 MSTORE PUSH1 0x24 PUSH1 0x0 REVERT JUMPDEST SWAP1 PUSH1 0x0 MSTORE PUSH1 0x20 PUSH1 0x0 KECCAK256 SWAP1 PUSH1 0x6 MUL ADD PUSH1 0x1 ADD SLOAD SWAP6 POP DUP1 PUSH1 0x0 ADD DUP9 DUP2 SLOAD DUP2 LT PUSH2 0x1576 JUMPI PUSH4 0x4E487B71 PUSH1 0xE0 SHL PUSH1 0x0 MSTORE PUSH1 0x32 PUSH1 0x4 MSTORE PUSH1 0x24 PUSH1 0x0 REVERT JUMPDEST SWAP1 PUSH1 0x0 MSTORE PUSH1 0x20 PUSH1 0x0 KECCAK256 SWAP1 PUSH1 0x6 MUL ADD PUSH1 0x2 ADD SLOAD SWAP5 POP DUP1 PUSH1 0x0 ADD DUP9 DUP2 SLOAD DUP2 LT PUSH2 0x15AD JUMPI PUSH4 0x4E487B71 PUSH1 0xE0 SHL PUSH1 0x0 MSTORE PUSH1 0x32 PUSH1 0x4 MSTORE PUSH1 0x24 PUSH1 0x0 REVERT JUMPDEST SWAP1 PUSH1 0x0 MSTORE PUSH1 0x20 PUSH1 0x0 KECCAK256 SWAP1 PUSH1 0x6 MUL ADD PUSH1 0x3 ADD SLOAD SWAP4 POP DUP1 PUSH1 0x0 ADD DUP9 DUP2 SLOAD DUP2 LT PUSH2 0x15E4 JUMPI PUSH4 0x4E487B71 PUSH1 0xE0 SHL PUSH1 0x0 MSTORE PUSH1 0x32 PUSH1 0x4 MSTORE PUSH1 0x24 PUSH1 0x0 REVERT JUMPDEST SWAP1 PUSH1 0x0 MSTORE PUSH1 0x20 PUSH1 0x0 KECCAK256 SWAP1 PUSH1 0x6 MUL ADD PUSH1 0x4 ADD SLOAD SWAP3 POP DUP1 PUSH1 0x0 ADD DUP9 DUP2 SLOAD DUP2 LT PUSH2 0x161B JUMPI PUSH4 0x4E487B71 PUSH1 0xE0 SHL PUSH1 0x0 MSTORE PUSH1 0x32 PUSH1 0x4 MSTORE PUSH1 0x24 PUSH1 0x0 REVERT JUMPDEST SWAP1 PUSH1 0x0 MSTORE PUSH1 0x20 PUSH1 0x0 KECCAK256 SWAP1 PUSH1 0x6 MUL ADD PUSH1 0x5 ADD SLOAD SWAP2 POP POP SWAP3 SWAP6 POP SWAP3 SWAP6 POP SWAP3 SWAP6 JUMP JUMPDEST PUSH1 0x0 SLOAD PUSH1 0x1 PUSH1 0x1 PUSH1 0xA0 SHL SUB AND CALLER EQ PUSH2 0x1664 JUMPI PUSH1 0x40 MLOAD PUSH3 0x461BCD PUSH1 0xE5 SHL DUP2 MSTORE PUSH1 0x4 ADD PUSH2 0xAA7 SWAP1 PUSH2 0x1A8A JUMP JUMPDEST PUSH2 0x166D DUP2 PUSH2 0x18E0 JUMP JUMPDEST POP JUMP JUMPDEST PUSH1 0x0 SLOAD PUSH1 0x1 PUSH1 0x1 PUSH1 0xA0 SHL SUB AND CALLER EQ PUSH2 0x169A JUMPI PUSH1 0x40 MLOAD PUSH3 0x461BCD PUSH1 0xE5 SHL DUP2 MSTORE PUSH1 0x4 ADD PUSH2 0xAA7 SWAP1 PUSH2 0x1A8A JUMP JUMPDEST PUSH1 0x0 DUP1 SLOAD PUSH1 0x40 MLOAD PUSH1 0x1 PUSH1 0x1 PUSH1 0xA0 SHL SUB SWAP1 SWAP2 AND SWAP1 DUP4 SWAP1 DUP4 DUP2 DUP2 DUP2 DUP6 DUP8 GAS CALL SWAP3 POP POP POP RETURNDATASIZE DUP1 PUSH1 0x0 DUP2 EQ PUSH2 0x16E7 JUMPI PUSH1 0x40 MLOAD SWAP2 POP PUSH1 0x1F NOT PUSH1 0x3F RETURNDATASIZE ADD AND DUP3 ADD PUSH1 0x40 MSTORE RETURNDATASIZE DUP3 MSTORE RETURNDATASIZE PUSH1 0x0 PUSH1 0x20 DUP5 ADD RETURNDATACOPY PUSH2 0x16EC JUMP JUMPDEST PUSH1 0x60 SWAP2 POP JUMPDEST POP POP SWAP1 POP DUP1 PUSH2 0x1734 JUMPI PUSH1 0x40 MLOAD PUSH3 0x461BCD PUSH1 0xE5 SHL DUP2 MSTORE PUSH1 0x20 PUSH1 0x4 DUP3 ADD MSTORE PUSH1 0x14 PUSH1 0x24 DUP3 ADD MSTORE PUSH20 0x2330B4B632B2103A379039B2B7321022BA3432B9 PUSH1 0x61 SHL PUSH1 0x44 DUP3 ADD MSTORE PUSH1 0x64 ADD PUSH2 0xAA7 JUMP JUMPDEST POP POP JUMP JUMPDEST PUSH1 0x0 DUP3 PUSH2 0x1747 JUMPI POP PUSH1 0x0 PUSH2 0x9F2 JUMP JUMPDEST PUSH1 0x0 PUSH2 0x1753 DUP4 DUP6 PUSH2 0x1AF7 JUMP JUMPDEST SWAP1 POP DUP3 PUSH2 0x1760 DUP6 DUP4 PUSH2 0x1AD7 JUMP JUMPDEST EQ PUSH2 0x17B7 JUMPI PUSH1 0x40 MLOAD PUSH3 0x461BCD PUSH1 0xE5 SHL DUP2 MSTORE PUSH1 0x20 PUSH1 0x4 DUP3 ADD MSTORE PUSH1 0x21 PUSH1 0x24 DUP3 ADD MSTORE PUSH32 0x536166654D6174683A206D756C7469706C69636174696F6E206F766572666C6F PUSH1 0x44 DUP3 ADD MSTORE PUSH1 0x77 PUSH1 0xF8 SHL PUSH1 0x64 DUP3 ADD MSTORE PUSH1 0x84 ADD PUSH2 0xAA7 JUMP JUMPDEST SWAP4 SWAP3 POP POP POP JUMP JUMPDEST PUSH1 0x0 DUP1 DUP3 GT PUSH2 0x180F JUMPI PUSH1 0x40 MLOAD PUSH3 0x461BCD PUSH1 0xE5 SHL DUP2 MSTORE PUSH1 0x20 PUSH1 0x4 DUP3 ADD MSTORE PUSH1 0x1A PUSH1 0x24 DUP3 ADD MSTORE PUSH32 0x536166654D6174683A206469766973696F6E206279207A65726F000000000000 PUSH1 0x44 DUP3 ADD MSTORE PUSH1 0x64 ADD PUSH2 0xAA7 JUMP JUMPDEST PUSH1 0x0 PUSH2 0x181B DUP4 DUP6 PUSH2 0x1AD7 JUMP JUMPDEST SWAP5 SWAP4 POP POP POP POP JUMP JUMPDEST PUSH1 0x0 DUP3 DUP3 GT ISZERO PUSH2 0x1875 JUMPI PUSH1 0x40 MLOAD PUSH3 0x461BCD PUSH1 0xE5 SHL DUP2 MSTORE PUSH1 0x20 PUSH1 0x4 DUP3 ADD MSTORE PUSH1 0x1E PUSH1 0x24 DUP3 ADD MSTORE PUSH32 0x536166654D6174683A207375627472616374696F6E206F766572666C6F770000 PUSH1 0x44 DUP3 ADD MSTORE PUSH1 0x64 ADD PUSH2 0xAA7 JUMP JUMPDEST PUSH1 0x0 PUSH2 0x181B DUP4 DUP6 PUSH2 0x1B16 JUMP JUMPDEST PUSH1 0x0 DUP1 PUSH2 0x188E DUP4 DUP6 PUSH2 0x1ABF JUMP JUMPDEST SWAP1 POP DUP4 DUP2 LT ISZERO PUSH2 0x17B7 JUMPI PUSH1 0x40 MLOAD PUSH3 0x461BCD PUSH1 0xE5 SHL DUP2 MSTORE PUSH1 0x20 PUSH1 0x4 DUP3 ADD MSTORE PUSH1 0x1B PUSH1 0x24 DUP3 ADD MSTORE PUSH32 0x536166654D6174683A206164646974696F6E206F766572666C6F770000000000 PUSH1 0x44 DUP3 ADD MSTORE PUSH1 0x64 ADD PUSH2 0xAA7 JUMP JUMPDEST PUSH1 0x1 PUSH1 0x1 PUSH1 0xA0 SHL SUB DUP2 AND PUSH2 0x1945 JUMPI PUSH1 0x40 MLOAD PUSH3 0x461BCD PUSH1 0xE5 SHL DUP2 MSTORE PUSH1 0x20 PUSH1 0x4 DUP3 ADD MSTORE PUSH1 0x26 PUSH1 0x24 DUP3 ADD MSTORE PUSH32 0x4F776E61626C653A206E6577206F776E657220697320746865207A65726F2061 PUSH1 0x44 DUP3 ADD MSTORE PUSH6 0x646472657373 PUSH1 0xD0 SHL PUSH1 0x64 DUP3 ADD MSTORE PUSH1 0x84 ADD PUSH2 0xAA7 JUMP JUMPDEST PUSH1 0x0 DUP1 SLOAD PUSH1 0x40 MLOAD PUSH1 0x1 PUSH1 0x1 PUSH1 0xA0 SHL SUB DUP1 DUP6 AND SWAP4 SWAP3 AND SWAP2 PUSH32 0x8BE0079C531659141344CD1FD0A4F28419497F9722A3DAAFE3B4186F6B6457E0 SWAP2 LOG3 PUSH1 0x0 DUP1 SLOAD PUSH1 0x1 PUSH1 0x1 PUSH1 0xA0 SHL SUB NOT AND PUSH1 0x1 PUSH1 0x1 PUSH1 0xA0 SHL SUB SWAP3 SWAP1 SWAP3 AND SWAP2 SWAP1 SWAP2 OR SWAP1 SSTORE JUMP JUMPDEST DUP1 CALLDATALOAD PUSH1 0x1 PUSH1 0x1 PUSH1 0xA0 SHL SUB DUP2 AND DUP2 EQ PUSH2 0x1443 JUMPI PUSH1 0x0 DUP1 REVERT JUMPDEST DUP1 CALLDATALOAD PUSH1 0xFF DUP2 AND DUP2 EQ PUSH2 0x1443 JUMPI PUSH1 0x0 DUP1 REVERT JUMPDEST PUSH1 0x0 PUSH1 0x20 DUP3 DUP5 SUB SLT ISZERO PUSH2 0x19D9 JUMPI DUP1 DUP2 REVERT JUMPDEST PUSH2 0x17B7 DUP3 PUSH2 0x19A0 JUMP JUMPDEST PUSH1 0x0 DUP1 PUSH1 0x40 DUP4 DUP6 SUB SLT ISZERO PUSH2 0x19F4 JUMPI DUP1 DUP2 REVERT JUMPDEST PUSH2 0x19FD DUP4 PUSH2 0x19A0 JUMP JUMPDEST SWAP5 PUSH1 0x20 SWAP4 SWAP1 SWAP4 ADD CALLDATALOAD SWAP4 POP POP POP JUMP JUMPDEST PUSH1 0x0 DUP1 PUSH1 0x40 DUP4 DUP6 SUB SLT ISZERO PUSH2 0x1A1D JUMPI DUP2 DUP3 REVERT JUMPDEST PUSH2 0x1A26 DUP4 PUSH2 0x19A0 JUMP JUMPDEST SWAP2 POP PUSH2 0x1A34 PUSH1 0x20 DUP5 ADD PUSH2 0x19B7 JUMP JUMPDEST SWAP1 POP SWAP3 POP SWAP3 SWAP1 POP JUMP JUMPDEST PUSH1 0x0 PUSH1 0x20 DUP3 DUP5 SUB SLT ISZERO PUSH2 0x1A4E JUMPI DUP1 DUP2 REVERT JUMPDEST POP CALLDATALOAD SWAP2 SWAP1 POP JUMP JUMPDEST PUSH1 0x0 PUSH1 0x20 DUP3 DUP5 SUB SLT ISZERO PUSH2 0x1A66 JUMPI DUP1 DUP2 REVERT JUMPDEST PUSH2 0x17B7 DUP3 PUSH2 0x19B7 JUMP JUMPDEST PUSH1 0x0 DUP1 PUSH1 0x40 DUP4 DUP6 SUB SLT ISZERO PUSH2 0x1A81 JUMPI DUP2 DUP3 REVERT JUMPDEST PUSH2 0x19FD DUP4 PUSH2 0x19B7 JUMP JUMPDEST PUSH1 0x20 DUP1 DUP3 MSTORE DUP2 DUP2 ADD MSTORE PUSH32 0x4F776E61626C653A2063616C6C6572206973206E6F7420746865206F776E6572 PUSH1 0x40 DUP3 ADD MSTORE PUSH1 0x60 ADD SWAP1 JUMP JUMPDEST PUSH1 0x0 DUP3 NOT DUP3 GT ISZERO PUSH2 0x1AD2 JUMPI PUSH2 0x1AD2 PUSH2 0x1B48 JUMP JUMPDEST POP ADD SWAP1 JUMP JUMPDEST PUSH1 0x0 DUP3 PUSH2 0x1AF2 JUMPI PUSH4 0x4E487B71 PUSH1 0xE0 SHL DUP2 MSTORE PUSH1 0x12 PUSH1 0x4 MSTORE PUSH1 0x24 DUP2 REVERT JUMPDEST POP DIV SWAP1 JUMP JUMPDEST PUSH1 0x0 DUP2 PUSH1 0x0 NOT DIV DUP4 GT DUP3 ISZERO ISZERO AND ISZERO PUSH2 0x1B11 JUMPI PUSH2 0x1B11 PUSH2 0x1B48 JUMP JUMPDEST POP MUL SWAP1 JUMP JUMPDEST PUSH1 0x0 DUP3 DUP3 LT ISZERO PUSH2 0x1B28 JUMPI PUSH2 0x1B28 PUSH2 0x1B48 JUMP JUMPDEST POP SUB SWAP1 JUMP JUMPDEST PUSH1 0x0 PUSH1 0x0 NOT DUP3 EQ ISZERO PUSH2 0x1B41 JUMPI PUSH2 0x1B41 PUSH2 0x1B48 JUMP JUMPDEST POP PUSH1 0x1 ADD SWAP1 JUMP JUMPDEST PUSH4 0x4E487B71 PUSH1 0xE0 SHL PUSH1 0x0 MSTORE PUSH1 0x11 PUSH1 0x4 MSTORE PUSH1 0x24 PUSH1 0x0 REVERT INVALID LOG2 PUSH5 0x6970667358 0x22 SLT KECCAK256 SHL DUP11 SWAP13 0xE2 0xD7 EQ NOT 0xE2 SSTORE ORIGIN MUL 0xDB PC 0xD7 0xEA EXTCODEHASH SWAP10 0xBD TIMESTAMP SELFBALANCE GASPRICE 0x48 DUP12 0xDE 0xCE CALLDATALOAD COINBASE 0x4C 0x25 PUSH2 0xD95B PUSH5 0x736F6C6343 STOP ADDMOD DIV STOP CALLER "
        },
        "gasEstimates": {
          "creation": {
            "codeDepositCost": "1412000",
            "executionCost": "infinite",
            "totalCost": "infinite"
          },
          "external": {
            "INVEST_MIN_AMOUNT()": "250",
            "PERCENTS_DIVIDER()": "253",
            "PERCENT_STEP()": "274",
            "PROJECT_FEE()": "252",
            "REFERRAL_PERCENTS(uint256)": "2031",
            "TIME_STEP()": "252",
            "WITHDRAW_FEE()": "273",
            "claimETH(uint256)": "infinite",
            "commissionWallet()": "1104",
            "getContractBalance()": "229",
            "getPercent(uint8)": "infinite",
            "getPlanInfo(uint8)": "3874",
            "getResult(uint8,uint256)": "infinite",
            "getUserAmountOfDeposits(address)": "1271",
            "getUserAvailable(address)": "infinite",
            "getUserCheckpoint(address)": "1276",
            "getUserDepositInfo(address,uint256)": "11002",
            "getUserDividends(address)": "infinite",
            "getUserDownlineCount(address)": "3021",
            "getUserReferralBonus(address)": "1320",
            "getUserReferralTotalBonus(address)": "1278",
            "getUserReferralWithdrawn(address)": "2320",
            "getUserReferrer(address)": "1363",
            "getUserTotalDeposits(address)": "infinite",
            "invest(address,uint8)": "infinite",
            "launch()": "21036",
            "owner()": "1076",
            "renounceOwnership()": "24233",
            "startUNIX()": "1095",
            "totalRefBonus()": "1073",
            "totalStaked()": "1096",
            "transferOwnership(address)": "24539",
            "withdraw()": "infinite"
          },
          "internal": {
            "isContract(address)": "infinite"
          }
        },
        "methodIdentifiers": {
          "INVEST_MIN_AMOUNT()": "e262113e",
          "PERCENTS_DIVIDER()": "01c234a8",
          "PERCENT_STEP()": "57fc86b4",
          "PROJECT_FEE()": "48d44bd1",
          "REFERRAL_PERCENTS(uint256)": "600d20ce",
          "TIME_STEP()": "32bc298c",
          "WITHDRAW_FEE()": "9bff5ddb",
          "claimETH(uint256)": "fe96973a",
          "commissionWallet()": "97c0262a",
          "getContractBalance()": "6f9fb98a",
          "getPercent(uint8)": "a51b9533",
          "getPlanInfo(uint8)": "aecaa634",
          "getResult(uint8,uint256)": "5936cf61",
          "getUserAmountOfDeposits(address)": "a8aeb6c2",
          "getUserAvailable(address)": "153ab9df",
          "getUserCheckpoint(address)": "d7ffca91",
          "getUserDepositInfo(address,uint256)": "c0806b03",
          "getUserDividends(address)": "040a772e",
          "getUserDownlineCount(address)": "03a93c0c",
          "getUserReferralBonus(address)": "e85abe09",
          "getUserReferralTotalBonus(address)": "48c37203",
          "getUserReferralWithdrawn(address)": "6bb18556",
          "getUserReferrer(address)": "36144c9a",
          "getUserTotalDeposits(address)": "7e3abeea",
          "invest(address,uint8)": "581c5ae6",
          "launch()": "01339c21",
          "owner()": "8da5cb5b",
          "renounceOwnership()": "715018a6",
          "startUNIX()": "c2341238",
          "totalRefBonus()": "69b11dd5",
          "totalStaked()": "817b1cd2",
          "transferOwnership(address)": "f2fde38b",
          "withdraw()": "3ccfd60b"
        }
      },
      "storageLayout": {
        "storage": [
          {
            "astId": 26,
            "contract": "contracts/bnbStaker.sol:BNBStaker",
            "label": "_owner",
            "offset": 0,
            "slot": "0",
            "type": "t_address"
          },
          {
            "astId": 173,
            "contract": "contracts/bnbStaker.sol:BNBStaker",
            "label": "REFERRAL_PERCENTS",
            "offset": 0,
            "slot": "1",
            "type": "t_array(t_uint256)dyn_storage"
          },
          {
            "astId": 190,
            "contract": "contracts/bnbStaker.sol:BNBStaker",
            "label": "totalStaked",
            "offset": 0,
            "slot": "2",
            "type": "t_uint256"
          },
          {
            "astId": 192,
            "contract": "contracts/bnbStaker.sol:BNBStaker",
            "label": "totalRefBonus",
            "offset": 0,
            "slot": "3",
            "type": "t_uint256"
          },
          {
            "astId": 201,
            "contract": "contracts/bnbStaker.sol:BNBStaker",
            "label": "plans",
            "offset": 0,
            "slot": "4",
            "type": "t_array(t_struct(Plan)197_storage)dyn_storage"
          },
          {
            "astId": 236,
            "contract": "contracts/bnbStaker.sol:BNBStaker",
            "label": "users",
            "offset": 0,
            "slot": "5",
            "type": "t_mapping(t_address,t_struct(User)231_storage)"
          },
          {
            "astId": 238,
            "contract": "contracts/bnbStaker.sol:BNBStaker",
            "label": "startUNIX",
            "offset": 0,
            "slot": "6",
            "type": "t_uint256"
          },
          {
            "astId": 240,
            "contract": "contracts/bnbStaker.sol:BNBStaker",
            "label": "commissionWallet",
            "offset": 0,
            "slot": "7",
            "type": "t_address_payable"
          }
        ],
        "types": {
          "t_address": {
            "encoding": "inplace",
            "label": "address",
            "numberOfBytes": "20"
          },
          "t_address_payable": {
            "encoding": "inplace",
            "label": "address payable",
            "numberOfBytes": "20"
          },
          "t_array(t_struct(Deposit)214_storage)dyn_storage": {
            "base": "t_struct(Deposit)214_storage",
            "encoding": "dynamic_array",
            "label": "struct BNBStaker.Deposit[]",
            "numberOfBytes": "32"
          },
          "t_array(t_struct(Plan)197_storage)dyn_storage": {
            "base": "t_struct(Plan)197_storage",
            "encoding": "dynamic_array",
            "label": "struct BNBStaker.Plan[]",
            "numberOfBytes": "32"
          },
          "t_array(t_uint256)3_storage": {
            "base": "t_uint256",
            "encoding": "inplace",
            "label": "uint256[3]",
            "numberOfBytes": "96"
          },
          "t_array(t_uint256)dyn_storage": {
            "base": "t_uint256",
            "encoding": "dynamic_array",
            "label": "uint256[]",
            "numberOfBytes": "32"
          },
          "t_mapping(t_address,t_struct(User)231_storage)": {
            "encoding": "mapping",
            "key": "t_address",
            "label": "mapping(address => struct BNBStaker.User)",
            "numberOfBytes": "32",
            "value": "t_struct(User)231_storage"
          },
          "t_struct(Deposit)214_storage": {
            "encoding": "inplace",
            "label": "struct BNBStaker.Deposit",
            "members": [
              {
                "astId": 203,
                "contract": "contracts/bnbStaker.sol:BNBStaker",
                "label": "plan",
                "offset": 0,
                "slot": "0",
                "type": "t_uint8"
              },
              {
                "astId": 205,
                "contract": "contracts/bnbStaker.sol:BNBStaker",
                "label": "percent",
                "offset": 0,
                "slot": "1",
                "type": "t_uint256"
              },
              {
                "astId": 207,
                "contract": "contracts/bnbStaker.sol:BNBStaker",
                "label": "amount",
                "offset": 0,
                "slot": "2",
                "type": "t_uint256"
              },
              {
                "astId": 209,
                "contract": "contracts/bnbStaker.sol:BNBStaker",
                "label": "profit",
                "offset": 0,
                "slot": "3",
                "type": "t_uint256"
              },
              {
                "astId": 211,
                "contract": "contracts/bnbStaker.sol:BNBStaker",
                "label": "start",
                "offset": 0,
                "slot": "4",
                "type": "t_uint256"
              },
              {
                "astId": 213,
                "contract": "contracts/bnbStaker.sol:BNBStaker",
                "label": "finish",
                "offset": 0,
                "slot": "5",
                "type": "t_uint256"
              }
            ],
            "numberOfBytes": "192"
          },
          "t_struct(Plan)197_storage": {
            "encoding": "inplace",
            "label": "struct BNBStaker.Plan",
            "members": [
              {
                "astId": 194,
                "contract": "contracts/bnbStaker.sol:BNBStaker",
                "label": "time",
                "offset": 0,
                "slot": "0",
                "type": "t_uint256"
              },
              {
                "astId": 196,
                "contract": "contracts/bnbStaker.sol:BNBStaker",
                "label": "percent",
                "offset": 0,
                "slot": "1",
                "type": "t_uint256"
              }
            ],
            "numberOfBytes": "64"
          },
          "t_struct(User)231_storage": {
            "encoding": "inplace",
            "label": "struct BNBStaker.User",
            "members": [
              {
                "astId": 218,
                "contract": "contracts/bnbStaker.sol:BNBStaker",
                "label": "deposits",
                "offset": 0,
                "slot": "0",
                "type": "t_array(t_struct(Deposit)214_storage)dyn_storage"
              },
              {
                "astId": 220,
                "contract": "contracts/bnbStaker.sol:BNBStaker",
                "label": "checkpoint",
                "offset": 0,
                "slot": "1",
                "type": "t_uint256"
              },
              {
                "astId": 222,
                "contract": "contracts/bnbStaker.sol:BNBStaker",
                "label": "referrer",
                "offset": 0,
                "slot": "2",
                "type": "t_address"
              },
              {
                "astId": 226,
                "contract": "contracts/bnbStaker.sol:BNBStaker",
                "label": "levels",
                "offset": 0,
                "slot": "3",
                "type": "t_array(t_uint256)3_storage"
              },
              {
                "astId": 228,
                "contract": "contracts/bnbStaker.sol:BNBStaker",
                "label": "bonus",
                "offset": 0,
                "slot": "6",
                "type": "t_uint256"
              },
              {
                "astId": 230,
                "contract": "contracts/bnbStaker.sol:BNBStaker",
                "label": "totalBonus",
                "offset": 0,
                "slot": "7",
                "type": "t_uint256"
              }
            ],
            "numberOfBytes": "256"
          },
          "t_uint256": {
            "encoding": "inplace",
            "label": "uint256",
            "numberOfBytes": "32"
          },
          "t_uint8": {
            "encoding": "inplace",
            "label": "uint8",
            "numberOfBytes": "1"
          }
        }
      },
      "userdoc": {
        "kind": "user",
        "methods": {},
        "version": 1
      }
    }
  }
}