{
  "_format": "hh-sol-artifact-1",
  "contractName": "BNBStaker",
  "sourceName": "contracts/bnbStaker.sol",
  "abi": [
    {
      "inputs": [],
      "stateMutability": "nonpayable",
      "type": "constructor"
    },
    {
      "anonymous": false,
      "inputs": [
        {
          "indexed": true,
          "internalType": "address",
          "name": "user",
          "type": "address"
        },
        {
          "indexed": false,
          "internalType": "uint256",
          "name": "totalAmount",
          "type": "uint256"
        }
      ],
      "name": "FeePayed",
      "type": "event"
    },
    {
      "anonymous": false,
      "inputs": [
        {
          "indexed": true,
          "internalType": "address",
          "name": "user",
          "type": "address"
        },
        {
          "indexed": false,
          "internalType": "uint8",
          "name": "plan",
          "type": "uint8"
        },
        {
          "indexed": false,
          "internalType": "uint256",
          "name": "percent",
          "type": "uint256"
        },
        {
          "indexed": false,
          "internalType": "uint256",
          "name": "amount",
          "type": "uint256"
        },
        {
          "indexed": false,
          "internalType": "uint256",
          "name": "profit",
          "type": "uint256"
        },
        {
          "indexed": false,
          "internalType": "uint256",
          "name": "start",
          "type": "uint256"
        },
        {
          "indexed": false,
          "internalType": "uint256",
          "name": "finish",
          "type": "uint256"
        }
      ],
      "name": "NewDeposit",
      "type": "event"
    },
    {
      "anonymous": false,
      "inputs": [
        {
          "indexed": false,
          "internalType": "address",
          "name": "user",
          "type": "address"
        }
      ],
      "name": "Newbie",
      "type": "event"
    },
    {
      "anonymous": false,
      "inputs": [
        {
          "indexed": true,
          "internalType": "address",
          "name": "previousOwner",
          "type": "address"
        },
        {
          "indexed": true,
          "internalType": "address",
          "name": "newOwner",
          "type": "address"
        }
      ],
      "name": "OwnershipTransferred",
      "type": "event"
    },
    {
      "anonymous": false,
      "inputs": [
        {
          "indexed": true,
          "internalType": "address",
          "name": "referrer",
          "type": "address"
        },
        {
          "indexed": true,
          "internalType": "address",
          "name": "referral",
          "type": "address"
        },
        {
          "indexed": true,
          "internalType": "uint256",
          "name": "level",
          "type": "uint256"
        },
        {
          "indexed": false,
          "internalType": "uint256",
          "name": "amount",
          "type": "uint256"
        }
      ],
      "name": "RefBonus",
      "type": "event"
    },
    {
      "anonymous": false,
      "inputs": [
        {
          "indexed": true,
          "internalType": "address",
          "name": "user",
          "type": "address"
        },
        {
          "indexed": false,
          "internalType": "uint256",
          "name": "amount",
          "type": "uint256"
        }
      ],
      "name": "Withdrawn",
      "type": "event"
    },
    {
      "inputs": [],
      "name": "INVEST_MIN_AMOUNT",
      "outputs": [
        {
          "internalType": "uint256",
          "name": "",
          "type": "uint256"
        }
      ],
      "stateMutability": "view",
      "type": "function"
    },
    {
      "inputs": [],
      "name": "PERCENTS_DIVIDER",
      "outputs": [
        {
          "internalType": "uint256",
          "name": "",
          "type": "uint256"
        }
      ],
      "stateMutability": "view",
      "type": "function"
    },
    {
      "inputs": [],
      "name": "PERCENT_STEP",
      "outputs": [
        {
          "internalType": "uint256",
          "name": "",
          "type": "uint256"
        }
      ],
      "stateMutability": "view",
      "type": "function"
    },
    {
      "inputs": [],
      "name": "PROJECT_FEE",
      "outputs": [
        {
          "internalType": "uint256",
          "name": "",
          "type": "uint256"
        }
      ],
      "stateMutability": "view",
      "type": "function"
    },
    {
      "inputs": [
        {
          "internalType": "uint256",
          "name": "",
          "type": "uint256"
        }
      ],
      "name": "REFERRAL_PERCENTS",
      "outputs": [
        {
          "internalType": "uint256",
          "name": "",
          "type": "uint256"
        }
      ],
      "stateMutability": "view",
      "type": "function"
    },
    {
      "inputs": [],
      "name": "TIME_STEP",
      "outputs": [
        {
          "internalType": "uint256",
          "name": "",
          "type": "uint256"
        }
      ],
      "stateMutability": "view",
      "type": "function"
    },
    {
      "inputs": [],
      "name": "WITHDRAW_FEE",
      "outputs": [
        {
          "internalType": "uint256",
          "name": "",
          "type": "uint256"
        }
      ],
      "stateMutability": "view",
      "type": "function"
    },
    {
      "inputs": [
        {
          "internalType": "uint256",
          "name": "amount",
          "type": "uint256"
        }
      ],
      "name": "claimETH",
      "outputs": [],
      "stateMutability": "nonpayable",
      "type": "function"
    },
    {
      "inputs": [],
      "name": "commissionWallet",
      "outputs": [
        {
          "internalType": "address payable",
          "name": "",
          "type": "address"
        }
      ],
      "stateMutability": "view",
      "type": "function"
    },
    {
      "inputs": [],
      "name": "getContractBalance",
      "outputs": [
        {
          "internalType": "uint256",
          "name": "",
          "type": "uint256"
        }
      ],
      "stateMutability": "view",
      "type": "function"
    },
    {
      "inputs": [
        {
          "internalType": "uint8",
          "name": "plan",
          "type": "uint8"
        }
      ],
      "name": "getPercent",
      "outputs": [
        {
          "internalType": "uint256",
          "name": "",
          "type": "uint256"
        }
      ],
      "stateMutability": "view",
      "type": "function"
    },
    {
      "inputs": [
        {
          "internalType": "uint8",
          "name": "plan",
          "type": "uint8"
        }
      ],
      "name": "getPlanInfo",
      "outputs": [
        {
          "internalType": "uint256",
          "name": "time",
          "type": "uint256"
        },
        {
          "internalType": "uint256",
          "name": "percent",
          "type": "uint256"
        }
      ],
      "stateMutability": "view",
      "type": "function"
    },
    {
      "inputs": [
        {
          "internalType": "uint8",
          "name": "plan",
          "type": "uint8"
        },
        {
          "internalType": "uint256",
          "name": "deposit",
          "type": "uint256"
        }
      ],
      "name": "getResult",
      "outputs": [
        {
          "internalType": "uint256",
          "name": "percent",
          "type": "uint256"
        },
        {
          "internalType": "uint256",
          "name": "profit",
          "type": "uint256"
        },
        {
          "internalType": "uint256",
          "name": "finish",
          "type": "uint256"
        }
      ],
      "stateMutability": "view",
      "type": "function"
    },
    {
      "inputs": [
        {
          "internalType": "address",
          "name": "userAddress",
          "type": "address"
        }
      ],
      "name": "getUserAmountOfDeposits",
      "outputs": [
        {
          "internalType": "uint256",
          "name": "",
          "type": "uint256"
        }
      ],
      "stateMutability": "view",
      "type": "function"
    },
    {
      "inputs": [
        {
          "internalType": "address",
          "name": "userAddress",
          "type": "address"
        }
      ],
      "name": "getUserAvailable",
      "outputs": [
        {
          "internalType": "uint256",
          "name": "",
          "type": "uint256"
        }
      ],
      "stateMutability": "view",
      "type": "function"
    },
    {
      "inputs": [
        {
          "internalType": "address",
          "name": "userAddress",
          "type": "address"
        }
      ],
      "name": "getUserCheckpoint",
      "outputs": [
        {
          "internalType": "uint256",
          "name": "",
          "type": "uint256"
        }
      ],
      "stateMutability": "view",
      "type": "function"
    },
    {
      "inputs": [
        {
          "internalType": "address",
          "name": "userAddress",
          "type": "address"
        },
        {
          "internalType": "uint256",
          "name": "index",
          "type": "uint256"
        }
      ],
      "name": "getUserDepositInfo",
      "outputs": [
        {
          "internalType": "uint8",
          "name": "plan",
          "type": "uint8"
        },
        {
          "internalType": "uint256",
          "name": "percent",
          "type": "uint256"
        },
        {
          "internalType": "uint256",
          "name": "amount",
          "type": "uint256"
        },
        {
          "internalType": "uint256",
          "name": "profit",
          "type": "uint256"
        },
        {
          "internalType": "uint256",
          "name": "start",
          "type": "uint256"
        },
        {
          "internalType": "uint256",
          "name": "finish",
          "type": "uint256"
        }
      ],
      "stateMutability": "view",
      "type": "function"
    },
    {
      "inputs": [
        {
          "internalType": "address",
          "name": "userAddress",
          "type": "address"
        }
      ],
      "name": "getUserDividends",
      "outputs": [
        {
          "internalType": "uint256",
          "name": "",
          "type": "uint256"
        }
      ],
      "stateMutability": "view",
      "type": "function"
    },
    {
      "inputs": [
        {
          "internalType": "address",
          "name": "userAddress",
          "type": "address"
        }
      ],
      "name": "getUserDownlineCount",
      "outputs": [
        {
          "internalType": "uint256",
          "name": "",
          "type": "uint256"
        },
        {
          "internalType": "uint256",
          "name": "",
          "type": "uint256"
        },
        {
          "internalType": "uint256",
          "name": "",
          "type": "uint256"
        }
      ],
      "stateMutability": "view",
      "type": "function"
    },
    {
      "inputs": [
        {
          "internalType": "address",
          "name": "userAddress",
          "type": "address"
        }
      ],
      "name": "getUserReferralBonus",
      "outputs": [
        {
          "internalType": "uint256",
          "name": "",
          "type": "uint256"
        }
      ],
      "stateMutability": "view",
      "type": "function"
    },
    {
      "inputs": [
        {
          "internalType": "address",
          "name": "userAddress",
          "type": "address"
        }
      ],
      "name": "getUserReferralTotalBonus",
      "outputs": [
        {
          "internalType": "uint256",
          "name": "",
          "type": "uint256"
        }
      ],
      "stateMutability": "view",
      "type": "function"
    },
    {
      "inputs": [
        {
          "internalType": "address",
          "name": "userAddress",
          "type": "address"
        }
      ],
      "name": "getUserReferralWithdrawn",
      "outputs": [
        {
          "internalType": "uint256",
          "name": "",
          "type": "uint256"
        }
      ],
      "stateMutability": "view",
      "type": "function"
    },
    {
      "inputs": [
        {
          "internalType": "address",
          "name": "userAddress",
          "type": "address"
        }
      ],
      "name": "getUserReferrer",
      "outputs": [
        {
          "internalType": "address",
          "name": "",
          "type": "address"
        }
      ],
      "stateMutability": "view",
      "type": "function"
    },
    {
      "inputs": [
        {
          "internalType": "address",
          "name": "userAddress",
          "type": "address"
        }
      ],
      "name": "getUserTotalDeposits",
      "outputs": [
        {
          "internalType": "uint256",
          "name": "amount",
          "type": "uint256"
        }
      ],
      "stateMutability": "view",
      "type": "function"
    },
    {
      "inputs": [
        {
          "internalType": "address",
          "name": "referrer",
          "type": "address"
        },
        {
          "internalType": "uint8",
          "name": "plan",
          "type": "uint8"
        }
      ],
      "name": "invest",
      "outputs": [],
      "stateMutability": "payable",
      "type": "function"
    },
    {
      "inputs": [],
      "name": "launch",
      "outputs": [],
      "stateMutability": "nonpayable",
      "type": "function"
    },
    {
      "inputs": [],
      "name": "owner",
      "outputs": [
        {
          "internalType": "address",
          "name": "",
          "type": "address"
        }
      ],
      "stateMutability": "view",
      "type": "function"
    },
    {
      "inputs": [],
      "name": "renounceOwnership",
      "outputs": [],
      "stateMutability": "nonpayable",
      "type": "function"
    },
    {
      "inputs": [],
      "name": "startUNIX",
      "outputs": [
        {
          "internalType": "uint256",
          "name": "",
          "type": "uint256"
        }
      ],
      "stateMutability": "view",
      "type": "function"
    },
    {
      "inputs": [],
      "name": "totalRefBonus",
      "outputs": [
        {
          "internalType": "uint256",
          "name": "",
          "type": "uint256"
        }
      ],
      "stateMutability": "view",
      "type": "function"
    },
    {
      "inputs": [],
      "name": "totalStaked",
      "outputs": [
        {
          "internalType": "uint256",
          "name": "",
          "type": "uint256"
        }
      ],
      "stateMutability": "view",
      "type": "function"
    },
    {
      "inputs": [
        {
          "internalType": "address",
          "name": "newOwner",
          "type": "address"
        }
      ],
      "name": "transferOwnership",
      "outputs": [],
      "stateMutability": "nonpayable",
      "type": "function"
    },
    {
      "inputs": [],
      "name": "withdraw",
      "outputs": [],
      "stateMutability": "nonpayable",
      "type": "function"
    }
  ],
  "bytecode": "0x60e0604052603c6080908152601e60a052600a60c05262000025906001906003620002c5565b503480156200003357600080fd5b50600080546001600160a01b031916339081178255604051909182917f8be0079c531659141344cd1fd0a4f28419497f9722a3daafe3b4186f6b6457e0908290a3506000546001600160a01b0316600760006101000a8154816001600160a01b0302191690836001600160a01b03160217905550600060068190555060046040518060400160405280600e815260200160508152509080600181540180825580915050600190039060005260206000209060020201600090919091909150600082015181600001556020820151816001015550506004604051806040016040528060158152602001604b81525090806001815401808255809150506001900390600052602060002090600202016000909190919091506000820151816000015560208201518160010155505060046040518060400160405280601c8152602001604681525090806001815401808255809150506001900390600052602060002090600202016000909190919091506000820151816000015560208201518160010155505060046040518060400160405280600e815260200160508152509080600181540180825580915050600190039060005260206000209060020201600090919091909150600082015181600001556020820151816001015550506004604051806040016040528060158152602001604b81525090806001815401808255809150506001900390600052602060002090600202016000909190919091506000820151816000015560208201518160010155505060046040518060400160405280601c8152602001604681525090806001815401808255809150506001900390600052602060002090600202016000909190919091506000820151816000015560208201518160010155505062000331565b82805482825590600052602060002090810192821562000308579160200282015b8281111562000308578251829060ff16905591602001919060010190620002e6565b50620003169291506200031a565b5090565b5b808211156200031657600081556001016200031b565b611b9480620003416000396000f3fe6080604052600436106101ee5760003560e01c80636f9fb98a1161010d578063a8aeb6c2116100a0578063d7ffca911161006f578063d7ffca91146105d3578063e262113e1461060c578063e85abe0914610628578063f2fde38b14610661578063fe96973a1461068157600080fd5b8063a8aeb6c214610501578063aecaa63414610537578063c0806b031461056c578063c2341238146105bd57600080fd5b80638da5cb5b116100dc5780638da5cb5b146104a357806397c0262a146104c15780639bff5ddb1461020a578063a51b9533146104e157600080fd5b80636f9fb98a14610445578063715018a6146104585780637e3abeea1461046d578063817b1cd21461048d57600080fd5b806348c37203116101855780635936cf61116101545780635936cf61146103cf578063600d20ce146103ef57806369b11dd51461040f5780636bb185561461042557600080fd5b806348c372031461035957806348d44bd11461039257806357fc86b4146103a7578063581c5ae6146103bc57600080fd5b8063153ab9df116101c1578063153ab9df146102b957806332bc298c146102d957806336144c9a146102f05780633ccfd60b1461034457600080fd5b806301339c21146101f357806301c234a81461020a57806303a93c0c14610233578063040a772e14610299575b600080fd5b3480156101ff57600080fd5b506102086106a1565b005b34801561021657600080fd5b506102206103e881565b6040519081526020015b60405180910390f35b34801561023f57600080fd5b5061027e61024e3660046119c8565b6001600160a01b031660009081526005602081905260409091206003810154600482015491909201549192909190565b6040805193845260208401929092529082015260600161022a565b3480156102a557600080fd5b506102206102b43660046119c8565b6106be565b3480156102c557600080fd5b506102206102d43660046119c8565b6109c2565b3480156102e557600080fd5b506102206201518081565b3480156102fc57600080fd5b5061032c61030b3660046119c8565b6001600160a01b039081166000908152600560205260409020600201541690565b6040516001600160a01b03909116815260200161022a565b34801561035057600080fd5b506102086109f8565b34801561036557600080fd5b506102206103743660046119c8565b6001600160a01b031660009081526005602052604090206007015490565b34801561039e57600080fd5b50610220609681565b3480156103b357600080fd5b50610220600381565b6102086103ca366004611a0b565b610b2d565b3480156103db57600080fd5b5061027e6103ea366004611a6f565b6110e9565b3480156103fb57600080fd5b5061022061040a366004611a3d565b61122f565b34801561041b57600080fd5b5061022060035481565b34801561043157600080fd5b506102206104403660046119c8565b611250565b34801561045157600080fd5b5047610220565b34801561046457600080fd5b5061020861127c565b34801561047957600080fd5b506102206104883660046119c8565b6112f0565b34801561049957600080fd5b5061022060025481565b3480156104af57600080fd5b506000546001600160a01b031661032c565b3480156104cd57600080fd5b5060075461032c906001600160a01b031681565b3480156104ed57600080fd5b506102206104fc366004611a55565b61138c565b34801561050d57600080fd5b5061022061051c3660046119c8565b6001600160a01b031660009081526005602052604090205490565b34801561054357600080fd5b50610557610552366004611a55565b611448565b6040805192835260208301919091520161022a565b34801561057857600080fd5b5061058c6105873660046119e2565b6114c0565b6040805160ff90971687526020870195909552938501929092526060840152608083015260a082015260c00161022a565b3480156105c957600080fd5b5061022060065481565b3480156105df57600080fd5b506102206105ee3660046119c8565b6001600160a01b031660009081526005602052604090206001015490565b34801561061857600080fd5b5061022067016345785d8a000081565b34801561063457600080fd5b506102206106433660046119c8565b6001600160a01b031660009081526005602052604090206006015490565b34801561066d57600080fd5b5061020861067c3660046119c8565b61163a565b34801561068d57600080fd5b5061020861069c366004611a3d565b611670565b6007546001600160a01b031633146106b857600080fd5b42600655565b6001600160a01b038116600090815260056020526040812081805b82548110156109ba5782600001818154811061070557634e487b7160e01b600052603260045260246000fd5b906000526020600020906006020160050154836001015410156109a857600383600001828154811061074757634e487b7160e01b600052603260045260246000fd5b600091825260209091206006909102015460ff1610156109225760006107ea6103e86107e486600001858154811061078f57634e487b7160e01b600052603260045260246000fd5b9060005260206000209060060201600101548760000186815481106107c457634e487b7160e01b600052603260045260246000fd5b90600052602060002090600602016002015461173890919063ffffffff16565b906117be565b90506000846001015485600001848154811061081657634e487b7160e01b600052603260045260246000fd5b9060005260206000209060060201600401541161083757846001015461086d565b84600001838154811061085a57634e487b7160e01b600052603260045260246000fd5b9060005260206000209060060201600401545b905060004286600001858154811061089557634e487b7160e01b600052603260045260246000fd5b906000526020600020906006020160050154106108b257426108e8565b8560000184815481106108d557634e487b7160e01b600052603260045260246000fd5b9060005260206000209060060201600501545b90508082101561091a57610917610910620151806107e46109098587611823565b8790611738565b8690611881565b94505b5050506109a8565b82600001818154811061094557634e487b7160e01b600052603260045260246000fd5b9060005260206000209060060201600501544211156109a8576109a583600001828154811061098457634e487b7160e01b600052603260045260246000fd5b9060005260206000209060060201600301548361188190919063ffffffff16565b91505b806109b281611b2d565b9150506106d9565b509392505050565b60006109f26109d0836106be565b6001600160a01b03841660009081526005602052604090206006015490611881565b92915050565b33600081815260056020526040812091610a11906106be565b90506000610a276127106107e4846103e8611738565b9050610a338282611823565b336000908152600560205260409020600601549092508015610a635760006006850155610a608382611881565b92505b60008311610ab05760405162461bcd60e51b81526020600482015260156024820152745573657220686173206e6f206469766964656e647360581b60448201526064015b60405180910390fd5b4783811015610abd578093505b426001860155604051339085156108fc029086906000818181858888f19350505050158015610af0573d6000803e3d6000fd5b5060405184815233907f7084f5476618d8e60b11ef0d7d3f06914655adb8793e28ff7f018d4c76d505d59060200160405180910390a25050505050565b67016345785d8a0000341015610b715760405162461bcd60e51b81526020600482015260096024820152681d1bdbc81cdb585b1b60ba1b6044820152606401610aa7565b60068160ff1610610bb35760405162461bcd60e51b815260206004820152600c60248201526b24b73b30b634b210383630b760a11b6044820152606401610aa7565b4260065410610c045760405162461bcd60e51b815260206004820152601b60248201527f636f6e7472616374206861736e607420737461727465642079657400000000006044820152606401610aa7565b6000610c176103e86107e4346096611738565b6007546040519192506001600160a01b03169082156108fc029083906000818181858888f19350505050158015610c52573d6000803e3d6000fd5b5060405181815233907f2899dc8c12def1caa9accb64257cf2fd9f960f21bb27a560a757eae3c2ec43c19060200160405180910390a233600090815260056020526040902060028101546001600160a01b0316610df7576001600160a01b03841660009081526005602052604090205415801590610cd957506001600160a01b0384163314155b15610cfc576002810180546001600160a01b0319166001600160a01b0386161790555b60028101546001600160a01b031660005b6003811015610df4576001600160a01b03821615610ddd57610d79600160056000856001600160a01b03166001600160a01b031681526020019081526020016000206003018360038110610d7157634e487b7160e01b600052603260045260246000fd5b015490611881565b6001600160a01b038316600090815260056020526040902060039081019083908110610db557634e487b7160e01b600052603260045260246000fd5b01556001600160a01b0391821660009081526005602052604090206002015490911690610de2565b610df4565b80610dec81611b2d565b915050610d0d565b50505b60028101546001600160a01b031615610f685760028101546001600160a01b031660005b6003811015610f65576001600160a01b03821615610f4e576000610e796103e86107e460018581548110610e5f57634e487b7160e01b600052603260045260246000fd5b90600052602060002001543461173890919063ffffffff16565b6001600160a01b038416600090815260056020526040902060060154909150610ea29082611881565b6001600160a01b0384166000908152600560205260409020600681019190915560070154610ed09082611881565b6001600160a01b038416600081815260056020908152604091829020600701939093555183815284923392917fd41f7e766eebcc7ff42b11ac8691bdf864db4afc0c55e71d629d54edce460d98910160405180910390a4506001600160a01b0391821660009081526005602052604090206002015490911690610f53565b610f65565b80610f5d81611b2d565b915050610e1b565b50505b8054610fa8574260018201556040513381527f9fd565cd14c3c391679eb0cad12a14dcf7534e9d3462bcb9b67a098a9bbbc24a9060200160405180910390a15b6000806000610fb786346110e9565b925092509250836000016040518060c001604052808860ff16815260200185815260200134815260200184815260200142815260200183815250908060018154018082558091505060019003906000526020600020906006020160009091909190915060008201518160000160006101000a81548160ff021916908360ff1602179055506020820151816001015560408201518160020155606082015181600301556080820151816004015560a0820151816005015550506110843460025461188190919063ffffffff16565b6002556040805160ff881681526020810185905234818301526060810184905242608082015260a08101839052905133917f84e02daa69bdb087c9fe8d3041abca495512cb14e723070f6d1d4efface82e5d919081900360c00190a250505050505050565b60008060006110f78561138c565b925060038560ff16101561115a5761115360048660ff168154811061112c57634e487b7160e01b600052603260045260246000fd5b600091825260209091206002909102015461114d6103e86107e48888611738565b90611738565b91506111da565b60068560ff1610156111da5760005b60048660ff168154811061118d57634e487b7160e01b600052603260045260246000fd5b9060005260206000209060020201600001548110156111d8576111c46111bd6103e86107e48761114d8a89611881565b8490611881565b9250806111d081611b2d565b915050611169565b505b61122661121f6201518060048860ff168154811061120857634e487b7160e01b600052603260045260246000fd5b600091825260209091206002909102015490611738565b4290611881565b90509250925092565b6001818154811061123f57600080fd5b600091825260209091200154905081565b6001600160a01b038116600090815260056020526040812060068101546007909101546109f291611823565b6000546001600160a01b031633146112a65760405162461bcd60e51b8152600401610aa790611a8a565b600080546040516001600160a01b03909116907f8be0079c531659141344cd1fd0a4f28419497f9722a3daafe3b4186f6b6457e0908390a3600080546001600160a01b0319169055565b6000805b6001600160a01b038316600090815260056020526040902054811015611386576001600160a01b0383166000908152600560205260409020805461137291908390811061135157634e487b7160e01b600052603260045260246000fd5b9060005260206000209060060201600201548361188190919063ffffffff16565b91508061137e81611b2d565b9150506112f4565b50919050565b6000600654421115611406576109f26113c2620151806107e46113ba6006544261182390919063ffffffff16565b600390611738565b60048460ff16815481106113e657634e487b7160e01b600052603260045260246000fd5b90600052602060002090600202016001015461188190919063ffffffff16565b60048260ff168154811061142a57634e487b7160e01b600052603260045260246000fd5b9060005260206000209060020201600101549050919050565b919050565b60008060048360ff168154811061146f57634e487b7160e01b600052603260045260246000fd5b906000526020600020906002020160000154915060048360ff16815481106114a757634e487b7160e01b600052603260045260246000fd5b9060005260206000209060020201600101549050915091565b6001600160a01b03821660009081526005602052604081208054829182918291829182919081908990811061150557634e487b7160e01b600052603260045260246000fd5b6000918252602090912060069091020154815460ff909116975081908990811061153f57634e487b7160e01b600052603260045260246000fd5b906000526020600020906006020160010154955080600001888154811061157657634e487b7160e01b600052603260045260246000fd5b90600052602060002090600602016002015494508060000188815481106115ad57634e487b7160e01b600052603260045260246000fd5b90600052602060002090600602016003015493508060000188815481106115e457634e487b7160e01b600052603260045260246000fd5b906000526020600020906006020160040154925080600001888154811061161b57634e487b7160e01b600052603260045260246000fd5b9060005260206000209060060201600501549150509295509295509295565b6000546001600160a01b031633146116645760405162461bcd60e51b8152600401610aa790611a8a565b61166d816118e0565b50565b6000546001600160a01b0316331461169a5760405162461bcd60e51b8152600401610aa790611a8a565b600080546040516001600160a01b039091169083908381818185875af1925050503d80600081146116e7576040519150601f19603f3d011682016040523d82523d6000602084013e6116ec565b606091505b50509050806117345760405162461bcd60e51b81526020600482015260146024820152732330b4b632b2103a379039b2b7321022ba3432b960611b6044820152606401610aa7565b5050565b600082611747575060006109f2565b60006117538385611af7565b9050826117608583611ad7565b146117b75760405162461bcd60e51b815260206004820152602160248201527f536166654d6174683a206d756c7469706c69636174696f6e206f766572666c6f6044820152607760f81b6064820152608401610aa7565b9392505050565b600080821161180f5760405162461bcd60e51b815260206004820152601a60248201527f536166654d6174683a206469766973696f6e206279207a65726f0000000000006044820152606401610aa7565b600061181b8385611ad7565b949350505050565b6000828211156118755760405162461bcd60e51b815260206004820152601e60248201527f536166654d6174683a207375627472616374696f6e206f766572666c6f7700006044820152606401610aa7565b600061181b8385611b16565b60008061188e8385611abf565b9050838110156117b75760405162461bcd60e51b815260206004820152601b60248201527f536166654d6174683a206164646974696f6e206f766572666c6f7700000000006044820152606401610aa7565b6001600160a01b0381166119455760405162461bcd60e51b815260206004820152602660248201527f4f776e61626c653a206e6577206f776e657220697320746865207a65726f206160448201526564647265737360d01b6064820152608401610aa7565b600080546040516001600160a01b03808516939216917f8be0079c531659141344cd1fd0a4f28419497f9722a3daafe3b4186f6b6457e091a3600080546001600160a01b0319166001600160a01b0392909216919091179055565b80356001600160a01b038116811461144357600080fd5b803560ff8116811461144357600080fd5b6000602082840312156119d9578081fd5b6117b7826119a0565b600080604083850312156119f4578081fd5b6119fd836119a0565b946020939093013593505050565b60008060408385031215611a1d578182fd5b611a26836119a0565b9150611a34602084016119b7565b90509250929050565b600060208284031215611a4e578081fd5b5035919050565b600060208284031215611a66578081fd5b6117b7826119b7565b60008060408385031215611a81578182fd5b6119fd836119b7565b6020808252818101527f4f776e61626c653a2063616c6c6572206973206e6f7420746865206f776e6572604082015260600190565b60008219821115611ad257611ad2611b48565b500190565b600082611af257634e487b7160e01b81526012600452602481fd5b500490565b6000816000190483118215151615611b1157611b11611b48565b500290565b600082821015611b2857611b28611b48565b500390565b6000600019821415611b4157611b41611b48565b5060010190565b634e487b7160e01b600052601160045260246000fdfea26469706673582212201b8a9ce2d71419e2553202db58d7ea3f99bd42473a488bdece35414c2561d95b64736f6c63430008040033",
  "linkReferences": {},
  "deployedLinkReferences": {}
}