{
  "_format": "hh-sol-artifact-1",
  "contractName": "SimpleArbitrage",
  "sourceName": "contracts/arbitrage.sol",
  "abi": [
    {
      "inputs": [
        {
          "internalType": "address",
          "name": "_uniswapRouterAddress",
          "type": "address"
        },
        {
          "internalType": "address",
          "name": "_sushiswapRouterAddress",
          "type": "address"
        },
        {
          "internalType": "address",
          "name": "_dai",
          "type": "address"
        }
      ],
      "stateMutability": "nonpayable",
      "type": "constructor"
    },
    {
      "anonymous": false,
      "inputs": [
        {
          "indexed": false,
          "internalType": "uint256",
          "name": "uniswapPrice",
          "type": "uint256"
        },
        {
          "indexed": false,
          "internalType": "uint256",
          "name": "bakeryswapPrice",
          "type": "uint256"
        }
      ],
      "name": "swapPrice",
      "type": "event"
    },
    {
      "stateMutability": "payable",
      "type": "fallback"
    },
    {
      "inputs": [],
      "name": "WithdrawBalance",
      "outputs": [],
      "stateMutability": "payable",
      "type": "function"
    },
    {
      "inputs": [],
      "name": "arbitrageAmount",
      "outputs": [
        {
          "internalType": "uint256",
          "name": "",
          "type": "uint256"
        }
      ],
      "stateMutability": "view",
      "type": "function"
    },
    {
      "inputs": [],
      "name": "daiAddress",
      "outputs": [
        {
          "internalType": "address",
          "name": "",
          "type": "address"
        }
      ],
      "stateMutability": "view",
      "type": "function"
    },
    {
      "inputs": [
        {
          "internalType": "address",
          "name": "ERC20Token",
          "type": "address"
        }
      ],
      "name": "getPathForETHToToken",
      "outputs": [
        {
          "internalType": "address[]",
          "name": "",
          "type": "address[]"
        }
      ],
      "stateMutability": "view",
      "type": "function"
    },
    {
      "inputs": [
        {
          "internalType": "address",
          "name": "ERC20Token",
          "type": "address"
        }
      ],
      "name": "getPathForTokenToETH",
      "outputs": [
        {
          "internalType": "address[]",
          "name": "",
          "type": "address[]"
        }
      ],
      "stateMutability": "view",
      "type": "function"
    },
    {
      "inputs": [
        {
          "internalType": "uint256",
          "name": "_arbitrageAmount",
          "type": "uint256"
        }
      ],
      "name": "makeArbitrage",
      "outputs": [
        {
          "internalType": "bool",
          "name": "",
          "type": "bool"
        }
      ],
      "stateMutability": "nonpayable",
      "type": "function"
    },
    {
      "inputs": [],
      "name": "owner",
      "outputs": [
        {
          "internalType": "address",
          "name": "",
          "type": "address"
        }
      ],
      "stateMutability": "view",
      "type": "function"
    },
    {
      "inputs": [],
      "name": "sushiswapRouterAddress",
      "outputs": [
        {
          "internalType": "address",
          "name": "",
          "type": "address"
        }
      ],
      "stateMutability": "view",
      "type": "function"
    },
    {
      "inputs": [],
      "name": "uniswapRouterAddress",
      "outputs": [
        {
          "internalType": "address",
          "name": "",
          "type": "address"
        }
      ],
      "stateMutability": "view",
      "type": "function"
    },
    {
      "inputs": [],
      "name": "wethAddress",
      "outputs": [
        {
          "internalType": "address",
          "name": "",
          "type": "address"
        }
      ],
      "stateMutability": "view",
      "type": "function"
    },
    {
      "inputs": [
        {
          "internalType": "uint256",
          "name": "amount",
          "type": "uint256"
        }
      ],
      "name": "withdraw",
      "outputs": [],
      "stateMutability": "nonpayable",
      "type": "function"
    },
    {
      "stateMutability": "payable",
      "type": "receive"
    }
  ],
  "bytecode": "0x60806040523480156200001157600080fd5b506040516200114538038062001145833981016040819052620000349162000157565b600380546001600160a01b038086166001600160a01b031992831681179093556004805486831690841617815560008054841633179055600180549286169290931691909117909155604080516315ab88c960e31b8152905163ad5c464892828101926020929190829003018186803b158015620000b157600080fd5b505afa158015620000c6573d6000803e3d6000fd5b505050506040513d601f19601f82011682018060405250810190620000ec919062000133565b600280546001600160a01b0319166001600160a01b039290921691909117905550620001a0915050565b80516001600160a01b03811681146200012e57600080fd5b919050565b60006020828403121562000145578081fd5b620001508262000116565b9392505050565b6000806000606084860312156200016c578182fd5b620001778462000116565b9250620001876020850162000116565b9150620001976040850162000116565b90509250925092565b610f9580620001b06000396000f3fe60806040526004361061009a5760003560e01c80634f0e0ef3116100615780634f0e0ef3146101705780637dddfe9f146101905780638d6f7a88146101bd5780638da5cb5b146101dd578063a39d716d146101fd578063c599e7b11461020557005b806319d0a9a2146100a357806320ca3c7f146100e05780632c387275146101005780632e1a7d4d146101205780633dd9ce1f1461014057005b366100a157005b005b3480156100af57600080fd5b506004546100c3906001600160a01b031681565b6040516001600160a01b0390911681526020015b60405180910390f35b3480156100ec57600080fd5b506003546100c3906001600160a01b031681565b34801561010c57600080fd5b506001546100c3906001600160a01b031681565b34801561012c57600080fd5b506100a161013b366004610df8565b610229565b34801561014c57600080fd5b5061016061015b366004610df8565b610321565b60405190151581526020016100d7565b34801561017c57600080fd5b506002546100c3906001600160a01b031681565b34801561019c57600080fd5b506101b06101ab366004610cd9565b61086f565b6040516100d79190610e6b565b3480156101c957600080fd5b506101b06101d8366004610cd9565b610991565b3480156101e957600080fd5b506000546100c3906001600160a01b031681565b6100a1610a9f565b34801561021157600080fd5b5061021b60055481565b6040519081526020016100d7565b6000546001600160a01b031633146102835760405162461bcd60e51b81526020600482015260186024820152776f6e6c79206f776e65722063616e2063616c6c207468697360401b60448201526064015b60405180910390fd5b600080546040516001600160a01b039091169083908381818185875af1925050503d80600081146102d0576040519150601f19603f3d011682016040523d82523d6000602084013e6102d5565b606091505b505090508061031d5760405162461bcd60e51b81526020600482015260146024820152732330b4b632b2103a379039b2b7321022ba3432b960611b604482015260640161027a565b5050565b6005819055600354600254600154600092839261034f926001600160a01b0392831692918216911686610b86565b60045460025460015460055493945060009361037b936001600160a01b03908116938116921690610b86565b60408051848152602081018390529192507f10258ac4e7953e44db6d92474c311040eef73337f9299a150c1422690b462a3a910160405180910390a16103c2816064610f10565b821115610631576003546005546001546001600160a01b0392831692637ff36ab592916000916103f2911661086f565b306103ff4261012c610f10565b6040518663ffffffff1660e01b815260040161041e9493929190610e7e565b6000604051808303818588803b15801561043757600080fd5b505af115801561044b573d6000803e3d6000fd5b50505050506040513d6000823e601f3d908101601f191682016040526104749190810190610d18565b506001546040516370a0823160e01b81523060048201526000916001600160a01b0316906370a082319060240160206040518083038186803b1580156104b957600080fd5b505afa1580156104cd573d6000803e3d6000fd5b505050506040513d601f19601f820116820180604052508101906104f19190610e10565b6001546004805460405163095ea7b360e01b81526001600160a01b03918216928101929092526024820184905292935091169063095ea7b390604401602060405180830381600087803b15801561054757600080fd5b505af115801561055b573d6000803e3d6000fd5b505050506040513d601f19601f8201168201806040525081019061057f9190610dd8565b506004546001546001600160a01b03918216916318cbafe59184916000916105a79116610991565b306105b44261012c610f10565b6040518663ffffffff1660e01b81526004016105d4959493929190610ed4565b600060405180830381600087803b1580156105ee57600080fd5b505af1158015610602573d6000803e3d6000fd5b505050506040513d6000823e601f3d908101601f1916820160405261062a9190810190610d18565b5050610865565b61063c826064610f10565b81111561081d576004546005546001546001600160a01b0392831692637ff36ab5929160009161066c911661086f565b306106794261012c610f10565b6040518663ffffffff1660e01b81526004016106989493929190610e7e565b6000604051808303818588803b1580156106b157600080fd5b505af11580156106c5573d6000803e3d6000fd5b50505050506040513d6000823e601f3d908101601f191682016040526106ee9190810190610d18565b506001546040516370a0823160e01b81523060048201526000916001600160a01b0316906370a082319060240160206040518083038186803b15801561073357600080fd5b505afa158015610747573d6000803e3d6000fd5b505050506040513d601f19601f8201168201806040525081019061076b9190610e10565b60015460035460405163095ea7b360e01b81526001600160a01b03918216600482015260248101849052929350169063095ea7b390604401602060405180830381600087803b1580156107bd57600080fd5b505af11580156107d1573d6000803e3d6000fd5b505050506040513d601f19601f820116820180604052508101906107f59190610dd8565b506003546001546001600160a01b03918216916318cbafe59184916000916105a79116610991565b60405162461bcd60e51b815260206004820152601860248201527f417262697472616765206e6f742070726f66697461626c650000000000000000604482015260640161027a565b5060019392505050565b604080516002808252606080830184529260009291906020830190803683375050600354604080516315ab88c960e31b815290519394506001600160a01b039091169263ad5c464892506004808301926020929190829003018186803b1580156108d857600080fd5b505afa1580156108ec573d6000803e3d6000fd5b505050506040513d601f19601f820116820180604052508101906109109190610cfc565b8160008151811061093157634e487b7160e01b600052603260045260246000fd5b60200260200101906001600160a01b031690816001600160a01b031681525050828160018151811061097357634e487b7160e01b600052603260045260246000fd5b6001600160a01b039092166020928302919091019091015292915050565b6040805160028082526060808301845292600092919060208301908036833701905050905082816000815181106109d857634e487b7160e01b600052603260045260246000fd5b60200260200101906001600160a01b031690816001600160a01b031681525050600460009054906101000a90046001600160a01b03166001600160a01b031663ad5c46486040518163ffffffff1660e01b815260040160206040518083038186803b158015610a4657600080fd5b505afa158015610a5a573d6000803e3d6000fd5b505050506040513d601f19601f82011682018060405250810190610a7e9190610cfc565b8160018151811061097357634e487b7160e01b600052603260045260246000fd5b6000546001600160a01b03163314610af45760405162461bcd60e51b81526020600482015260186024820152776f6e6c79206f776e65722063616e2063616c6c207468697360401b604482015260640161027a565b604051600090339047908381818185875af1925050503d8060008114610b36576040519150601f19603f3d011682016040523d82523d6000602084013e610b3b565b606091505b5050905080610b835760405162461bcd60e51b81526020600482015260146024820152732330b4b632b2103a379039b2b7321022ba3432b960611b604482015260640161027a565b50565b604080516002808252606082018352600092839291906020830190803683370190505090508481600081518110610bcd57634e487b7160e01b600052603260045260246000fd5b60200260200101906001600160a01b031690816001600160a01b0316815250508381600181518110610c0f57634e487b7160e01b600052603260045260246000fd5b6001600160a01b03928316602091820292909201015260405163d06ca61f60e01b815260009188169063d06ca61f90610c4e9087908690600401610eb3565b60006040518083038186803b158015610c6657600080fd5b505afa158015610c7a573d6000803e3d6000fd5b505050506040513d6000823e601f3d908101601f19168201604052610ca29190810190610d18565b600181518110610cc257634e487b7160e01b600052603260045260246000fd5b602002602001015190508092505050949350505050565b600060208284031215610cea578081fd5b8135610cf581610f4a565b9392505050565b600060208284031215610d0d578081fd5b8151610cf581610f4a565b60006020808385031215610d2a578182fd5b825167ffffffffffffffff80821115610d41578384fd5b818501915085601f830112610d54578384fd5b815181811115610d6657610d66610f34565b8060051b604051601f19603f83011681018181108582111715610d8b57610d8b610f34565b604052828152858101935084860182860187018a1015610da9578788fd5b8795505b83861015610dcb578051855260019590950194938601938601610dad565b5098975050505050505050565b600060208284031215610de9578081fd5b81518015158114610cf5578182fd5b600060208284031215610e09578081fd5b5035919050565b600060208284031215610e21578081fd5b5051919050565b6000815180845260208085019450808401835b83811015610e605781516001600160a01b031687529582019590820190600101610e3b565b509495945050505050565b602081526000610cf56020830184610e28565b848152608060208201526000610e976080830186610e28565b6001600160a01b03949094166040830152506060015292915050565b828152604060208201526000610ecc6040830184610e28565b949350505050565b85815284602082015260a060408201526000610ef360a0830186610e28565b6001600160a01b0394909416606083015250608001529392505050565b60008219821115610f2f57634e487b7160e01b81526011600452602481fd5b500190565b634e487b7160e01b600052604160045260246000fd5b6001600160a01b0381168114610b8357600080fdfea2646970667358221220f382b9e651a550a1e474a0b87965254576fbf8b91a06d581fd86afe2823cc21d64736f6c63430008040033",
  "linkReferences": {},
  "deployedLinkReferences": {}
}