{
  "_format": "hh-sol-artifact-1",
  "contractName": "Claimable",
  "sourceName": "contracts/presale.sol",
  "abi": [
    {
      "anonymous": false,
      "inputs": [
        {
          "indexed": true,
          "internalType": "address",
          "name": "previousOwner",
          "type": "address"
        },
        {
          "indexed": true,
          "internalType": "address",
          "name": "newOwner",
          "type": "address"
        }
      ],
      "name": "OwnershipTransferred",
      "type": "event"
    },
    {
      "inputs": [
        {
          "internalType": "uint256",
          "name": "amount",
          "type": "uint256"
        }
      ],
      "name": "claimETH",
      "outputs": [],
      "stateMutability": "nonpayable",
      "type": "function"
    },
    {
      "inputs": [
        {
          "internalType": "address",
          "name": "tokenAddress",
          "type": "address"
        },
        {
          "internalType": "uint256",
          "name": "amount",
          "type": "uint256"
        }
      ],
      "name": "claimToken",
      "outputs": [],
      "stateMutability": "nonpayable",
      "type": "function"
    },
    {
      "inputs": [],
      "name": "owner",
      "outputs": [
        {
          "internalType": "address",
          "name": "",
          "type": "address"
        }
      ],
      "stateMutability": "view",
      "type": "function"
    },
    {
      "inputs": [],
      "name": "renounceOwnership",
      "outputs": [],
      "stateMutability": "nonpayable",
      "type": "function"
    },
    {
      "inputs": [
        {
          "internalType": "address",
          "name": "newOwner",
          "type": "address"
        }
      ],
      "name": "transferOwnership",
      "outputs": [],
      "stateMutability": "nonpayable",
      "type": "function"
    }
  ],
  "bytecode": "0x608060405234801561001057600080fd5b50600080546001600160a01b031916339081178255604051909182917f8be0079c531659141344cd1fd0a4f28419497f9722a3daafe3b4186f6b6457e0908290a3506104d2806100616000396000f3fe608060405234801561001057600080fd5b50600436106100575760003560e01c80631698755f1461005c578063715018a6146100715780638da5cb5b14610079578063f2fde38b14610098578063fe96973a146100ab575b600080fd5b61006f61006a366004610406565b6100be565b005b61006f610197565b600054604080516001600160a01b039092168252519081900360200190f35b61006f6100a63660046103e5565b61020b565b61006f6100b936600461044f565b610241565b6000546001600160a01b031633146100f15760405162461bcd60e51b81526004016100e890610467565b60405180910390fd5b816001600160a01b031663a9059cbb6101126000546001600160a01b031690565b6040516001600160e01b031960e084901b1681526001600160a01b03909116600482015260248101849052604401602060405180830381600087803b15801561015a57600080fd5b505af115801561016e573d6000803e3d6000fd5b505050506040513d601f19601f82011682018060405250810190610192919061042f565b505050565b6000546001600160a01b031633146101c15760405162461bcd60e51b81526004016100e890610467565b600080546040516001600160a01b03909116907f8be0079c531659141344cd1fd0a4f28419497f9722a3daafe3b4186f6b6457e0908390a3600080546001600160a01b0319169055565b6000546001600160a01b031633146102355760405162461bcd60e51b81526004016100e890610467565b61023e81610309565b50565b6000546001600160a01b0316331461026b5760405162461bcd60e51b81526004016100e890610467565b600080546040516001600160a01b039091169083908381818185875af1925050503d80600081146102b8576040519150601f19603f3d011682016040523d82523d6000602084013e6102bd565b606091505b50509050806103055760405162461bcd60e51b81526020600482015260146024820152732330b4b632b2103a379039b2b7321022ba3432b960611b60448201526064016100e8565b5050565b6001600160a01b03811661036e5760405162461bcd60e51b815260206004820152602660248201527f4f776e61626c653a206e6577206f776e657220697320746865207a65726f206160448201526564647265737360d01b60648201526084016100e8565b600080546040516001600160a01b03808516939216917f8be0079c531659141344cd1fd0a4f28419497f9722a3daafe3b4186f6b6457e091a3600080546001600160a01b0319166001600160a01b0392909216919091179055565b80356001600160a01b03811681146103e057600080fd5b919050565b6000602082840312156103f6578081fd5b6103ff826103c9565b9392505050565b60008060408385031215610418578081fd5b610421836103c9565b946020939093013593505050565b600060208284031215610440578081fd5b815180151581146103ff578182fd5b600060208284031215610460578081fd5b5035919050565b6020808252818101527f4f776e61626c653a2063616c6c6572206973206e6f7420746865206f776e657260408201526060019056fea2646970667358221220b73a7c98820f1e5679aa87368f181991240dead1f426d22dd9d9b5f03d67a7bf64736f6c63430008040033",
  "linkReferences": {},
  "deployedLinkReferences": {}
}