{
  "_format": "hh-sol-artifact-1",
  "contractName": "Presale",
  "sourceName": "contracts/presale.sol",
  "abi": [
    {
      "inputs": [
        {
          "internalType": "address",
          "name": "_tokenAddress",
          "type": "address"
        },
        {
          "internalType": "address",
          "name": "_adminWallet",
          "type": "address"
        },
        {
          "components": [
            {
              "internalType": "uint256",
              "name": "vestingPrice",
              "type": "uint256"
            },
            {
              "internalType": "uint256",
              "name": "vestingPeriod",
              "type": "uint256"
            },
            {
              "internalType": "uint256",
              "name": "price",
              "type": "uint256"
            }
          ],
          "internalType": "struct Presale.Terms",
          "name": "_terms",
          "type": "tuple"
        }
      ],
      "stateMutability": "nonpayable",
      "type": "constructor"
    },
    {
      "anonymous": false,
      "inputs": [
        {
          "indexed": false,
          "internalType": "address",
          "name": "to",
          "type": "address"
        },
        {
          "indexed": false,
          "internalType": "uint256",
          "name": "amount",
          "type": "uint256"
        }
      ],
      "name": "Buy",
      "type": "event"
    },
    {
      "anonymous": false,
      "inputs": [
        {
          "indexed": true,
          "internalType": "address",
          "name": "previousOwner",
          "type": "address"
        },
        {
          "indexed": true,
          "internalType": "address",
          "name": "newOwner",
          "type": "address"
        }
      ],
      "name": "OwnershipTransferred",
      "type": "event"
    },
    {
      "stateMutability": "payable",
      "type": "fallback"
    },
    {
      "inputs": [],
      "name": "buy",
      "outputs": [],
      "stateMutability": "payable",
      "type": "function"
    },
    {
      "inputs": [
        {
          "internalType": "uint256",
          "name": "amount",
          "type": "uint256"
        }
      ],
      "name": "claimETH",
      "outputs": [],
      "stateMutability": "nonpayable",
      "type": "function"
    },
    {
      "inputs": [
        {
          "internalType": "address",
          "name": "tokenAddress",
          "type": "address"
        },
        {
          "internalType": "uint256",
          "name": "amount",
          "type": "uint256"
        }
      ],
      "name": "claimToken",
      "outputs": [],
      "stateMutability": "nonpayable",
      "type": "function"
    },
    {
      "inputs": [],
      "name": "getPrice",
      "outputs": [
        {
          "internalType": "uint256",
          "name": "tokenPrice",
          "type": "uint256"
        }
      ],
      "stateMutability": "view",
      "type": "function"
    },
    {
      "inputs": [],
      "name": "owner",
      "outputs": [
        {
          "internalType": "address",
          "name": "",
          "type": "address"
        }
      ],
      "stateMutability": "view",
      "type": "function"
    },
    {
      "inputs": [],
      "name": "renounceOwnership",
      "outputs": [],
      "stateMutability": "nonpayable",
      "type": "function"
    },
    {
      "inputs": [],
      "name": "resetStartTime",
      "outputs": [],
      "stateMutability": "nonpayable",
      "type": "function"
    },
    {
      "inputs": [
        {
          "components": [
            {
              "internalType": "uint256",
              "name": "vestingPrice",
              "type": "uint256"
            },
            {
              "internalType": "uint256",
              "name": "vestingPeriod",
              "type": "uint256"
            },
            {
              "internalType": "uint256",
              "name": "price",
              "type": "uint256"
            }
          ],
          "internalType": "struct Presale.Terms",
          "name": "_terms",
          "type": "tuple"
        }
      ],
      "name": "resetTerms",
      "outputs": [],
      "stateMutability": "nonpayable",
      "type": "function"
    },
    {
      "inputs": [
        {
          "internalType": "address",
          "name": "_adminWallet",
          "type": "address"
        }
      ],
      "name": "setAdminWallet",
      "outputs": [],
      "stateMutability": "nonpayable",
      "type": "function"
    },
    {
      "inputs": [],
      "name": "startTime",
      "outputs": [
        {
          "internalType": "uint256",
          "name": "",
          "type": "uint256"
        }
      ],
      "stateMutability": "view",
      "type": "function"
    },
    {
      "inputs": [],
      "name": "terms",
      "outputs": [
        {
          "internalType": "uint256",
          "name": "vestingPrice",
          "type": "uint256"
        },
        {
          "internalType": "uint256",
          "name": "vestingPeriod",
          "type": "uint256"
        },
        {
          "internalType": "uint256",
          "name": "price",
          "type": "uint256"
        }
      ],
      "stateMutability": "view",
      "type": "function"
    },
    {
      "inputs": [],
      "name": "tokenAddress",
      "outputs": [
        {
          "internalType": "address",
          "name": "",
          "type": "address"
        }
      ],
      "stateMutability": "view",
      "type": "function"
    },
    {
      "inputs": [
        {
          "internalType": "address",
          "name": "newOwner",
          "type": "address"
        }
      ],
      "name": "transferOwnership",
      "outputs": [],
      "stateMutability": "nonpayable",
      "type": "function"
    },
    {
      "stateMutability": "payable",
      "type": "receive"
    }
  ],
  "bytecode": "0x608060405234801561001057600080fd5b50604051610b0e380380610b0e83398101604081905261002f916100d9565b600080546001600160a01b031916339081178255604051909182917f8be0079c531659141344cd1fd0a4f28419497f9722a3daafe3b4186f6b6457e0908290a350600480546001600160a01b039485166001600160a01b0319918216179091556005805493909416921691909117909155805160015560208101516002556040015160035542600655610172565b80516001600160a01b03811681146100d457600080fd5b919050565b600080600083850360a08112156100ee578384fd5b6100f7856100bd565b9350610105602086016100bd565b92506060603f1982011215610118578182fd5b50604051606081016001600160401b038111828210171561014757634e487b7160e01b83526041600452602483fd5b8060405250604085015181526060850151602082015260808501516040820152809150509250925092565b61098d806101816000396000f3fe6080604052600436106100c65760003560e01c80639d76ea581161007f578063df04c6ef11610059578063df04c6ef146101fc578063f2fde38b1461021c578063f42958be1461023c578063fe96973a14610251576100d5565b80639d76ea58146101a2578063a6f2ae3a146100d5578063d5025625146101c2576100d5565b80631698755f146100dd57806335082933146100fd578063715018a61461011d57806378e97925146101325780638da5cb5b1461015b57806398d5fdca1461018d576100d5565b366100d5576100d3610271565b005b6100d3610271565b3480156100e957600080fd5b506100d36100f836600461080f565b6103fa565b34801561010957600080fd5b506100d36101183660046107ee565b6104ca565b34801561012957600080fd5b506100d3610516565b34801561013e57600080fd5b5061014860065481565b6040519081526020015b60405180910390f35b34801561016757600080fd5b506000546001600160a01b03165b6040516001600160a01b039091168152602001610152565b34801561019957600080fd5b5061014861058a565b3480156101ae57600080fd5b50600454610175906001600160a01b031681565b3480156101ce57600080fd5b506001546002546003546101e192919083565b60408051938452602084019290925290820152606001610152565b34801561020857600080fd5b506100d3610217366004610858565b6105a4565b34801561022857600080fd5b506100d36102373660046107ee565b6105e4565b34801561024857600080fd5b506100d361061a565b34801561025d57600080fd5b506100d361026c3660046108bf565b61064a565b6000620f424061027f61058a565b610289903461092c565b610293919061090c565b6004805460405163a9059cbb60e01b81523392810192909252602482018390529192506001600160a01b039091169063a9059cbb90604401602060405180830381600087803b1580156102e557600080fd5b505af11580156102f9573d6000803e3d6000fd5b505050506040513d601f19601f8201168201806040525081019061031d9190610838565b50600080546040516001600160a01b039091169034908381818185875af1925050503d806000811461036b576040519150601f19603f3d011682016040523d82523d6000602084013e610370565b606091505b50509050806103bd5760405162461bcd60e51b81526020600482015260146024820152732330b4b632b2103a379039b2b7321022ba3432b960611b60448201526064015b60405180910390fd5b60408051338152602081018490527fe3d4187f6ca4248660cc0ac8b8056515bac4a8132be2eca31d6d0cc170722a7e910160405180910390a15050565b6000546001600160a01b031633146104245760405162461bcd60e51b81526004016103b4906108d7565b816001600160a01b031663a9059cbb6104456000546001600160a01b031690565b6040516001600160e01b031960e084901b1681526001600160a01b03909116600482015260248101849052604401602060405180830381600087803b15801561048d57600080fd5b505af11580156104a1573d6000803e3d6000fd5b505050506040513d601f19601f820116820180604052508101906104c59190610838565b505050565b6000546001600160a01b031633146104f45760405162461bcd60e51b81526004016103b4906108d7565b600580546001600160a01b0319166001600160a01b0392909216919091179055565b6000546001600160a01b031633146105405760405162461bcd60e51b81526004016103b4906108d7565b600080546040516001600160a01b03909116907f8be0079c531659141344cd1fd0a4f28419497f9722a3daafe3b4186f6b6457e0908390a3600080546001600160a01b0319169055565b600254600090421161059d575060015490565b5060035490565b6000546001600160a01b031633146105ce5760405162461bcd60e51b81526004016103b4906108d7565b8051600155602081015160025560400151600355565b6000546001600160a01b0316331461060e5760405162461bcd60e51b81526004016103b4906108d7565b61061781610712565b50565b6000546001600160a01b031633146106445760405162461bcd60e51b81526004016103b4906108d7565b42600655565b6000546001600160a01b031633146106745760405162461bcd60e51b81526004016103b4906108d7565b600080546040516001600160a01b039091169083908381818185875af1925050503d80600081146106c1576040519150601f19603f3d011682016040523d82523d6000602084013e6106c6565b606091505b505090508061070e5760405162461bcd60e51b81526020600482015260146024820152732330b4b632b2103a379039b2b7321022ba3432b960611b60448201526064016103b4565b5050565b6001600160a01b0381166107775760405162461bcd60e51b815260206004820152602660248201527f4f776e61626c653a206e6577206f776e657220697320746865207a65726f206160448201526564647265737360d01b60648201526084016103b4565b600080546040516001600160a01b03808516939216917f8be0079c531659141344cd1fd0a4f28419497f9722a3daafe3b4186f6b6457e091a3600080546001600160a01b0319166001600160a01b0392909216919091179055565b80356001600160a01b03811681146107e957600080fd5b919050565b6000602082840312156107ff578081fd5b610808826107d2565b9392505050565b60008060408385031215610821578081fd5b61082a836107d2565b946020939093013593505050565b600060208284031215610849578081fd5b81518015158114610808578182fd5b600060608284031215610869578081fd5b6040516060810181811067ffffffffffffffff8211171561089857634e487b7160e01b83526041600452602483fd5b80604052508235815260208301356020820152604083013560408201528091505092915050565b6000602082840312156108d0578081fd5b5035919050565b6020808252818101527f4f776e61626c653a2063616c6c6572206973206e6f7420746865206f776e6572604082015260600190565b60008261092757634e487b7160e01b81526012600452602481fd5b500490565b600081600019048311821515161561095257634e487b7160e01b81526011600452602481fd5b50029056fea26469706673582212200f6becdd3482da44eee2859bd31161dac2cec993bb45c5e8b2a58c5caeba24a464736f6c63430008040033",
  "linkReferences": {},
  "deployedLinkReferences": {}
}